{
  "_format": "hh-sol-artifact-1",
  "contractName": "CorporateAccount",
  "sourceName": "contracts/Contract.sol",
  "abi": [
    {
      "inputs": [
        {
          "internalType": "address[]",
          "name": "_mgrs",
          "type": "address[]"
        },
        {
          "internalType": "address",
          "name": "_mappingContract",
          "type": "address"
        }
      ],
      "stateMutability": "nonpayable",
      "type": "constructor"
    },
    {
      "stateMutability": "payable",
      "type": "fallback"
    },
    {
      "inputs": [
        {
          "internalType": "address",
          "name": "",
          "type": "address"
        }
      ],
      "name": "EmployeeProfile",
      "outputs": [
        {
          "internalType": "uint256",
          "name": "id",
          "type": "uint256"
        },
        {
          "internalType": "string",
          "name": "name",
          "type": "string"
        },
        {
          "internalType": "uint256",
          "name": "roleId",
          "type": "uint256"
        },
        {
          "internalType": "address",
          "name": "myManager",
          "type": "address"
        },
        {
          "internalType": "uint256",
          "name": "spent",
          "type": "uint256"
        },
        {
          "internalType": "uint256",
          "name": "totalSpent",
          "type": "uint256"
        },
        {
          "internalType": "bool",
          "name": "active",
          "type": "bool"
        },
        {
          "internalType": "uint256",
          "name": "lastRefresh",
          "type": "uint256"
        }
      ],
      "stateMutability": "view",
      "type": "function"
    },
    {
      "inputs": [
        {
          "internalType": "uint256",
          "name": "",
          "type": "uint256"
        }
      ],
      "name": "Employees",
      "outputs": [
        {
          "internalType": "address",
          "name": "",
          "type": "address"
        }
      ],
      "stateMutability": "view",
      "type": "function"
    },
    {
      "inputs": [
        {
          "internalType": "address",
          "name": "",
          "type": "address"
        }
      ],
      "name": "MerchantProfile",
      "outputs": [
        {
          "internalType": "uint256",
          "name": "id",
          "type": "uint256"
        },
        {
          "internalType": "string",
          "name": "name",
          "type": "string"
        },
        {
          "internalType": "bool",
          "name": "active",
          "type": "bool"
        }
      ],
      "stateMutability": "view",
      "type": "function"
    },
    {
      "inputs": [
        {
          "internalType": "uint256",
          "name": "",
          "type": "uint256"
        }
      ],
      "name": "Merchants",
      "outputs": [
        {
          "internalType": "address",
          "name": "",
          "type": "address"
        }
      ],
      "stateMutability": "view",
      "type": "function"
    },
    {
      "inputs": [
        {
          "internalType": "uint256",
          "name": "",
          "type": "uint256"
        }
      ],
      "name": "Transactions",
      "outputs": [
        {
          "internalType": "address",
          "name": "employee",
          "type": "address"
        },
        {
          "internalType": "address",
          "name": "merchants",
          "type": "address"
        },
        {
          "internalType": "uint256",
          "name": "value",
          "type": "uint256"
        },
        {
          "internalType": "enum CorporateAccount.Status",
          "name": "txStatus",
          "type": "uint8"
        }
      ],
      "stateMutability": "view",
      "type": "function"
    },
    {
      "inputs": [
        {
          "internalType": "address",
          "name": "_employee",
          "type": "address"
        }
      ],
      "name": "activeEmployee",
      "outputs": [],
      "stateMutability": "nonpayable",
      "type": "function"
    },
    {
      "inputs": [
        {
          "internalType": "address",
          "name": "_merchant",
          "type": "address"
        }
      ],
      "name": "activeMerchant",
      "outputs": [],
      "stateMutability": "nonpayable",
      "type": "function"
    },
    {
      "inputs": [
        {
          "internalType": "address",
          "name": "_employee",
          "type": "address"
        },
        {
          "internalType": "string",
          "name": "_name",
          "type": "string"
        },
        {
          "internalType": "uint256",
          "name": "_roleId",
          "type": "uint256"
        }
      ],
      "name": "addEmployee",
      "outputs": [],
      "stateMutability": "nonpayable",
      "type": "function"
    },
    {
      "inputs": [
        {
          "internalType": "address[]",
          "name": "_employees",
          "type": "address[]"
        },
        {
          "internalType": "string[]",
          "name": "_names",
          "type": "string[]"
        },
        {
          "internalType": "uint256",
          "name": "_roleId",
          "type": "uint256"
        }
      ],
      "name": "addEmployees",
      "outputs": [],
      "stateMutability": "nonpayable",
      "type": "function"
    },
    {
      "inputs": [
        {
          "internalType": "string",
          "name": "_name",
          "type": "string"
        },
        {
          "internalType": "address",
          "name": "_merchant",
          "type": "address"
        }
      ],
      "name": "addMerchant",
      "outputs": [],
      "stateMutability": "nonpayable",
      "type": "function"
    },
    {
      "inputs": [
        {
          "internalType": "string",
          "name": "_role",
          "type": "string"
        },
        {
          "internalType": "uint256",
          "name": "_budget",
          "type": "uint256"
        }
      ],
      "name": "addRole",
      "outputs": [],
      "stateMutability": "nonpayable",
      "type": "function"
    },
    {
      "inputs": [
        {
          "internalType": "string[]",
          "name": "_roles",
          "type": "string[]"
        },
        {
          "internalType": "uint256",
          "name": "_budget",
          "type": "uint256"
        }
      ],
      "name": "addRoles",
      "outputs": [],
      "stateMutability": "nonpayable",
      "type": "function"
    },
    {
      "inputs": [
        {
          "internalType": "uint256",
          "name": "_id",
          "type": "uint256"
        }
      ],
      "name": "approveLargeTx",
      "outputs": [],
      "stateMutability": "nonpayable",
      "type": "function"
    },
    {
      "inputs": [
        {
          "internalType": "string",
          "name": "_role",
          "type": "string"
        },
        {
          "internalType": "uint256",
          "name": "_amt",
          "type": "uint256"
        }
      ],
      "name": "changeBudget",
      "outputs": [],
      "stateMutability": "nonpayable",
      "type": "function"
    },
    {
      "inputs": [
        {
          "internalType": "address",
          "name": "_employee",
          "type": "address"
        },
        {
          "internalType": "address",
          "name": "_manager",
          "type": "address"
        }
      ],
      "name": "changeManager",
      "outputs": [],
      "stateMutability": "nonpayable",
      "type": "function"
    },
    {
      "inputs": [
        {
          "internalType": "address",
          "name": "_newowner",
          "type": "address"
        }
      ],
      "name": "changeOwner",
      "outputs": [],
      "stateMutability": "nonpayable",
      "type": "function"
    },
    {
      "inputs": [
        {
          "internalType": "address",
          "name": "_employee",
          "type": "address"
        },
        {
          "internalType": "uint256",
          "name": "_newRole",
          "type": "uint256"
        }
      ],
      "name": "changeRole",
      "outputs": [],
      "stateMutability": "nonpayable",
      "type": "function"
    },
    {
      "inputs": [
        {
          "internalType": "string",
          "name": "_role",
          "type": "string"
        }
      ],
      "name": "deactiveRole",
      "outputs": [],
      "stateMutability": "nonpayable",
      "type": "function"
    },
    {
      "inputs": [
        {
          "internalType": "uint256",
          "name": "_id",
          "type": "uint256"
        }
      ],
      "name": "disApproveLargeTx",
      "outputs": [],
      "stateMutability": "nonpayable",
      "type": "function"
    },
    {
      "inputs": [],
      "name": "getEmployees",
      "outputs": [
        {
          "internalType": "address[]",
          "name": "",
          "type": "address[]"
        }
      ],
      "stateMutability": "view",
      "type": "function"
    },
    {
      "inputs": [],
      "name": "getManagers",
      "outputs": [
        {
          "internalType": "address[]",
          "name": "",
          "type": "address[]"
        }
      ],
      "stateMutability": "view",
      "type": "function"
    },
    {
      "inputs": [],
      "name": "getMerchants",
      "outputs": [
        {
          "internalType": "address[]",
          "name": "",
          "type": "address[]"
        }
      ],
      "stateMutability": "view",
      "type": "function"
    },
    {
      "inputs": [],
      "name": "getRoles",
      "outputs": [
        {
          "internalType": "string[]",
          "name": "",
          "type": "string[]"
        }
      ],
      "stateMutability": "view",
      "type": "function"
    },
    {
      "inputs": [],
      "name": "getTransactions",
      "outputs": [
        {
          "components": [
            {
              "internalType": "address",
              "name": "employee",
              "type": "address"
            },
            {
              "internalType": "address",
              "name": "merchants",
              "type": "address"
            },
            {
              "internalType": "uint256",
              "name": "value",
              "type": "uint256"
            },
            {
              "internalType": "enum CorporateAccount.Status",
              "name": "txStatus",
              "type": "uint8"
            }
          ],
          "internalType": "struct CorporateAccount.Transaction[]",
          "name": "",
          "type": "tuple[]"
        }
      ],
      "stateMutability": "view",
      "type": "function"
    },
    {
      "inputs": [
        {
          "internalType": "address",
          "name": "_employee",
          "type": "address"
        }
      ],
      "name": "isEmployee",
      "outputs": [
        {
          "internalType": "bool",
          "name": "",
          "type": "bool"
        }
      ],
      "stateMutability": "view",
      "type": "function"
    },
    {
      "inputs": [
        {
          "internalType": "uint256",
          "name": "",
          "type": "uint256"
        }
      ],
      "name": "managers",
      "outputs": [
        {
          "internalType": "address",
          "name": "",
          "type": "address"
        }
      ],
      "stateMutability": "view",
      "type": "function"
    },
    {
      "inputs": [],
      "name": "myRole",
      "outputs": [
        {
          "internalType": "string",
          "name": "",
          "type": "string"
        }
      ],
      "stateMutability": "view",
      "type": "function"
    },
    {
      "inputs": [],
      "name": "owner",
      "outputs": [
        {
          "internalType": "address",
          "name": "",
          "type": "address"
        }
      ],
      "stateMutability": "view",
      "type": "function"
    },
    {
      "inputs": [],
      "name": "required",
      "outputs": [
        {
          "internalType": "uint256",
          "name": "",
          "type": "uint256"
        }
      ],
      "stateMutability": "view",
      "type": "function"
    },
    {
      "inputs": [
        {
          "internalType": "string",
          "name": "",
          "type": "string"
        }
      ],
      "name": "roleActive",
      "outputs": [
        {
          "internalType": "bool",
          "name": "",
          "type": "bool"
        }
      ],
      "stateMutability": "view",
      "type": "function"
    },
    {
      "inputs": [
        {
          "internalType": "string",
          "name": "",
          "type": "string"
        }
      ],
      "name": "roleBudget",
      "outputs": [
        {
          "internalType": "uint256",
          "name": "",
          "type": "uint256"
        }
      ],
      "stateMutability": "view",
      "type": "function"
    },
    {
      "inputs": [
        {
          "internalType": "uint256",
          "name": "roleId",
          "type": "uint256"
        }
      ],
      "name": "roleName",
      "outputs": [
        {
          "internalType": "string",
          "name": "",
          "type": "string"
        }
      ],
      "stateMutability": "view",
      "type": "function"
    },
    {
      "inputs": [
        {
          "internalType": "uint256",
          "name": "",
          "type": "uint256"
        }
      ],
      "name": "roleNames",
      "outputs": [
        {
          "internalType": "string",
          "name": "",
          "type": "string"
        }
      ],
      "stateMutability": "view",
      "type": "function"
    },
    {
      "inputs": [
        {
          "internalType": "address",
          "name": "_merchant",
          "type": "address"
        },
        {
          "internalType": "uint256",
          "name": "_value",
          "type": "uint256"
        }
      ],
      "name": "submitTransaction",
      "outputs": [],
      "stateMutability": "nonpayable",
      "type": "function"
    },
    {
      "inputs": [],
      "name": "withdraw",
      "outputs": [],
      "stateMutability": "nonpayable",
      "type": "function"
    },
    {
      "stateMutability": "payable",
      "type": "receive"
    }
  ],
  "bytecode": "0x60806040523480156200001157600080fd5b5060405162004fb138038062004fb183398181016040528101906200003791906200033a565b60008251116200004657600080fd5b336000806101000a81548173ffffffffffffffffffffffffffffffffffffffff021916908373ffffffffffffffffffffffffffffffffffffffff16021790555081600390805190602001906200009e929190620001d3565b5060005b82518110156200015b57600160046000858481518110620000ec577f4e487b7100000000000000000000000000000000000000000000000000000000600052603260045260246000fd5b602002602001015173ffffffffffffffffffffffffffffffffffffffff1673ffffffffffffffffffffffffffffffffffffffff16815260200190815260200160002060006101000a81548160ff021916908315150217905550808062000152906200048e565b915050620000a2565b508073ffffffffffffffffffffffffffffffffffffffff1663e89b0e1e306040518263ffffffff1660e01b8152600401620001979190620003a5565b600060405180830381600087803b158015620001b257600080fd5b505af1158015620001c7573d6000803e3d6000fd5b50505050505062000565565b8280548282559060005260206000209081019282156200024f579160200282015b828111156200024e5782518260006101000a81548173ffffffffffffffffffffffffffffffffffffffff021916908373ffffffffffffffffffffffffffffffffffffffff16021790555091602001919060010190620001f4565b5b5090506200025e919062000262565b5090565b5b808211156200027d57600081600090555060010162000263565b5090565b6000620002986200029284620003eb565b620003c2565b90508083825260208201905082856020860282011115620002b857600080fd5b60005b85811015620002ec5781620002d18882620002f6565b845260208401935060208301925050600181019050620002bb565b5050509392505050565b60008151905062000307816200054b565b92915050565b600082601f8301126200031f57600080fd5b81516200033184826020860162000281565b91505092915050565b600080604083850312156200034e57600080fd5b600083015167ffffffffffffffff8111156200036957600080fd5b62000377858286016200030d565b92505060206200038a85828601620002f6565b9150509250929050565b6200039f816200041a565b82525050565b6000602082019050620003bc600083018462000394565b92915050565b6000620003ce620003e1565b9050620003dc828262000458565b919050565b6000604051905090565b600067ffffffffffffffff8211156200040957620004086200050b565b5b602082029050602081019050919050565b600062000427826200042e565b9050919050565b600073ffffffffffffffffffffffffffffffffffffffff82169050919050565b6000819050919050565b62000463826200053a565b810181811067ffffffffffffffff821117156200048557620004846200050b565b5b80604052505050565b60006200049b826200044e565b91507fffffffffffffffffffffffffffffffffffffffffffffffffffffffffffffffff821415620004d157620004d0620004dc565b5b600182019050919050565b7f4e487b7100000000000000000000000000000000000000000000000000000000600052601160045260246000fd5b7f4e487b7100000000000000000000000000000000000000000000000000000000600052604160045260246000fd5b6000601f19601f8301169050919050565b62000556816200041a565b81146200056257600080fd5b50565b614a3c80620005756000396000f3fe6080604052600436106102085760003560e01c80638b34365a11610118578063b14cf5e0116100a0578063dc8452cd1161006f578063dc8452cd14610799578063dcd7207e146107c4578063e2d1800f146107ed578063ea66543f14610818578063ec4725c5146108555761020f565b8063b14cf5e0146106cb578063c47aeeac146106f4578063c7764aa214610733578063d5a0ec94146107705761020f565b8063a02be771116100e7578063a02be771146105fc578063a6d99c1c14610625578063a6f9dae11461064e578063a8d088bb14610677578063b0a23356146106a25761020f565b80638b34365a146105275780638da5cb5b1461055057806391874e931461057b5780639b47ad12146105bf5761020f565b80633ccfd60b1161019b578063638403161161016a5780636384031614610442578063710613981461046b57806383920e901461049657806386b0d906146104c1578063883c622a146104fe5761020f565b80633ccfd60b1461039a5780633d39c260146103b15780634abefa36146103ee57806358a5e6ca146104195761020f565b80632274fab6116101d75780632274fab6146102cb57806328f7aa36146102f457806334008b161461031d5780633a1d15761461035d5761020f565b8063067a6b05146102115780630acfd58e1461023c578063151c259f146102655780631d43b653146102a25761020f565b3661020f57005b005b34801561021d57600080fd5b50610226610892565b6040516102339190614037565b60405180910390f35b34801561024857600080fd5b50610263600480360381019061025e91906137eb565b610a3b565b005b34801561027157600080fd5b5061028c600480360381019061028791906139e3565b610bb5565b6040516102999190613f56565b60405180910390f35b3480156102ae57600080fd5b506102c960048036038101906102c491906137eb565b610bf4565b005b3480156102d757600080fd5b506102f260048036038101906102ed91906138fa565b610f2f565b005b34801561030057600080fd5b5061031b60048036038101906103169190613784565b610ff7565b005b34801561032957600080fd5b50610344600480360381019061033f91906139e3565b61130a565b6040516103549493929190613f71565b60405180910390f35b34801561036957600080fd5b50610384600480360381019061037f91906138fa565b611397565b604051610391919061401c565b60405180910390f35b3480156103a657600080fd5b506103af6113cd565b005b3480156103bd57600080fd5b506103d860048036038101906103d391906139e3565b6114a4565b6040516103e59190613f56565b60405180910390f35b3480156103fa57600080fd5b506104036114e3565b6040516104109190613fb6565b60405180910390f35b34801561042557600080fd5b50610440600480360381019061043b919061393b565b611571565b005b34801561044e57600080fd5b50610469600480360381019061046491906139e3565b611761565b005b34801561047757600080fd5b5061048061190e565b60405161048d9190613fd8565b60405180910390f35b3480156104a257600080fd5b506104ab6119e7565b6040516104b89190613ffa565b60405180910390f35b3480156104cd57600080fd5b506104e860048036038101906104e391906138fa565b611b83565b6040516104f591906141f9565b60405180910390f35b34801561050a57600080fd5b5061052560048036038101906105209190613827565b611bb1565b005b34801561053357600080fd5b5061054e6004803603810190610549919061371f565b611cc5565b005b34801561055c57600080fd5b50610565611e59565b6040516105729190613f56565b60405180910390f35b34801561058757600080fd5b506105a2600480360381019061059d919061371f565b611e7d565b6040516105b6989796959493929190614252565b60405180910390f35b3480156105cb57600080fd5b506105e660048036038101906105e191906139e3565b611f7a565b6040516105f39190614037565b60405180910390f35b34801561060857600080fd5b50610623600480360381019061061e919061398f565b612050565b005b34801561063157600080fd5b5061064c600480360381019061064791906139e3565b612178565b005b34801561065a57600080fd5b506106756004803603810190610670919061371f565b61232e565b005b34801561068357600080fd5b5061068c6123ff565b6040516106999190613fb6565b60405180910390f35b3480156106ae57600080fd5b506106c960048036038101906106c4919061398f565b61248d565b005b3480156106d757600080fd5b506106f260048036038101906106ed9190613748565b612542565b005b34801561070057600080fd5b5061071b6004803603810190610716919061371f565b61273a565b60405161072a93929190614214565b60405180910390f35b34801561073f57600080fd5b5061075a600480360381019061075591906139e3565b6127f9565b6040516107679190614037565b60405180910390f35b34801561077c57600080fd5b50610797600480360381019061079291906138a6565b6128a5565b005b3480156107a557600080fd5b506107ae6129a1565b6040516107bb91906141f9565b60405180910390f35b3480156107d057600080fd5b506107eb60048036038101906107e6919061371f565b6129a7565b005b3480156107f957600080fd5b50610802612ae2565b60405161080f9190613fb6565b60405180910390f35b34801561082457600080fd5b5061083f600480360381019061083a919061371f565b612b70565b60405161084c919061401c565b60405180910390f35b34801561086157600080fd5b5061087c600480360381019061087791906139e3565b612c45565b6040516108899190613f56565b60405180910390f35b60603373ffffffffffffffffffffffffffffffffffffffff1660008054906101000a900473ffffffffffffffffffffffffffffffffffffffff1673ffffffffffffffffffffffffffffffffffffffff161415610925576040518060400160405280600581526020017f6f776e65720000000000000000000000000000000000000000000000000000008152509050610a38565b600460003373ffffffffffffffffffffffffffffffffffffffff1673ffffffffffffffffffffffffffffffffffffffff16815260200190815260200160002060009054906101000a900460ff16156109b4576040518060400160405280600781526020017f6d616e61676572000000000000000000000000000000000000000000000000008152509050610a38565b6109bd33612b70565b156109ff576040518060400160405280600881526020017f656d706c6f7965650000000000000000000000000000000000000000000000008152509050610a38565b6040518060400160405280600281526020017f6e6100000000000000000000000000000000000000000000000000000000000081525090505b90565b600460003373ffffffffffffffffffffffffffffffffffffffff1673ffffffffffffffffffffffffffffffffffffffff16815260200190815260200160002060009054906101000a900460ff16610a9157600080fd5b610a9a82612b70565b610ad9576040517f08c379a0000000000000000000000000000000000000000000000000000000008152600401610ad0906141b9565b60405180910390fd5b600580549050811115610b21576040517f08c379a0000000000000000000000000000000000000000000000000000000008152600401610b18906140f9565b60405180910390fd5b610b2b8233612c84565b610b6a576040517f08c379a0000000000000000000000000000000000000000000000000000000008152600401610b6190614079565b60405180910390fd5b80600860008473ffffffffffffffffffffffffffffffffffffffff1673ffffffffffffffffffffffffffffffffffffffff168152602001908152602001600020600201819055505050565b60098181548110610bc557600080fd5b906000526020600020016000915054906101000a900473ffffffffffffffffffffffffffffffffffffffff1681565b600460003373ffffffffffffffffffffffffffffffffffffffff1673ffffffffffffffffffffffffffffffffffffffff16815260200190815260200160002060009054906101000a900460ff1680610c985750600860003373ffffffffffffffffffffffffffffffffffffffff1673ffffffffffffffffffffffffffffffffffffffff16815260200190815260200160002060060160009054906101000a900460ff165b610ca157600080fd5b600860003373ffffffffffffffffffffffffffffffffffffffff1673ffffffffffffffffffffffffffffffffffffffff16815260200190815260200160002060060160009054906101000a900460ff16610d30576040517f08c379a0000000000000000000000000000000000000000000000000000000008152600401610d2790614199565b60405180910390fd5b80471015610d73576040517f08c379a0000000000000000000000000000000000000000000000000000000008152600401610d6a90614099565b60405180910390fd5b610d7c82612d30565b610dbb576040517f08c379a0000000000000000000000000000000000000000000000000000000008152600401610db2906140d9565b60405180910390fd5b610dc433612e05565b6000600860003373ffffffffffffffffffffffffffffffffffffffff1673ffffffffffffffffffffffffffffffffffffffff1681526020019081526020016000206002015490506000600660058381548110610e49577f4e487b7100000000000000000000000000000000000000000000000000000000600052603260045260246000fd5b90600052602060002001604051610e609190613f3f565b90815260200160405180910390205490506000600860003373ffffffffffffffffffffffffffffffffffffffff1673ffffffffffffffffffffffffffffffffffffffff16815260200190815260200160002060040154905060008183610ec6919061452d565b9050808511610f1b578573ffffffffffffffffffffffffffffffffffffffff166108fc869081150290604051600060405180830381858888f19350505050158015610f15573d6000803e3d6000fd5b50610f27565b610f2633878761304d565b5b505050505050565b60008054906101000a900473ffffffffffffffffffffffffffffffffffffffff1673ffffffffffffffffffffffffffffffffffffffff163373ffffffffffffffffffffffffffffffffffffffff1614610fbd576040517f08c379a0000000000000000000000000000000000000000000000000000000008152600401610fb490614119565b60405180910390fd5b6000600782604051610fcf9190613f28565b908152602001604051809103902060006101000a81548160ff02191690831515021790555050565b600460003373ffffffffffffffffffffffffffffffffffffffff1673ffffffffffffffffffffffffffffffffffffffff16815260200190815260200160002060009054906101000a900460ff1661104d57600080fd5b600760058281548110611089577f4e487b7100000000000000000000000000000000000000000000000000000000600052603260045260246000fd5b906000526020600020016040516110a09190613f3f565b908152602001604051809103902060009054906101000a900460ff166110fb576040517f08c379a00000000000000000000000000000000000000000000000000000000081526004016110f2906140f9565b60405180910390fd5b61110483612b70565b15611144576040517f08c379a000000000000000000000000000000000000000000000000000000000815260040161113b90614179565b60405180910390fd5b600060098054905090506009849080600181540180825580915050600190039060005260206000200160009091909190916101000a81548173ffffffffffffffffffffffffffffffffffffffff021916908373ffffffffffffffffffffffffffffffffffffffff16021790555060004290506040518061010001604052808381526020018581526020018481526020013373ffffffffffffffffffffffffffffffffffffffff168152602001600081526020016000815260200160011515815260200182815250600860008773ffffffffffffffffffffffffffffffffffffffff1673ffffffffffffffffffffffffffffffffffffffff1681526020019081526020016000206000820151816000015560208201518160010190805190602001906112709291906134a4565b506040820151816002015560608201518160030160006101000a81548173ffffffffffffffffffffffffffffffffffffffff021916908373ffffffffffffffffffffffffffffffffffffffff1602179055506080820151816004015560a0820151816005015560c08201518160060160006101000a81548160ff02191690831515021790555060e082015181600701559050505050505050565b600c818154811061131a57600080fd5b90600052602060002090600402016000915090508060000160009054906101000a900473ffffffffffffffffffffffffffffffffffffffff16908060010160009054906101000a900473ffffffffffffffffffffffffffffffffffffffff16908060020154908060030160009054906101000a900460ff16905084565b6007818051602081018201805184825260208301602085012081835280955050505050506000915054906101000a900460ff1681565b60008054906101000a900473ffffffffffffffffffffffffffffffffffffffff1673ffffffffffffffffffffffffffffffffffffffff163373ffffffffffffffffffffffffffffffffffffffff161461145b576040517f08c379a000000000000000000000000000000000000000000000000000000000815260040161145290614119565b60405180910390fd5b3373ffffffffffffffffffffffffffffffffffffffff166108fc479081150290604051600060405180830381858888f193505050501580156114a1573d6000803e3d6000fd5b50565b600381815481106114b457600080fd5b906000526020600020016000915054906101000a900473ffffffffffffffffffffffffffffffffffffffff1681565b6060600980548060200260200160405190810160405280929190818152602001828054801561156757602002820191906000526020600020905b8160009054906101000a900473ffffffffffffffffffffffffffffffffffffffff1673ffffffffffffffffffffffffffffffffffffffff168152602001906001019080831161151d575b5050505050905090565b60008054906101000a900473ffffffffffffffffffffffffffffffffffffffff1673ffffffffffffffffffffffffffffffffffffffff163373ffffffffffffffffffffffffffffffffffffffff16146115ff576040517f08c379a00000000000000000000000000000000000000000000000000000000081526004016115f690614119565b60405180910390fd5b61160881612d30565b15611648576040517f08c379a000000000000000000000000000000000000000000000000000000000815260040161163f906140b9565b60405180910390fd5b6000600b805490509050600b829080600181540180825580915050600190039060005260206000200160009091909190916101000a81548173ffffffffffffffffffffffffffffffffffffffff021916908373ffffffffffffffffffffffffffffffffffffffff160217905550604051806060016040528082815260200184815260200160011515815250600a60008473ffffffffffffffffffffffffffffffffffffffff1673ffffffffffffffffffffffffffffffffffffffff1681526020019081526020016000206000820151816000015560208201518160010190805190602001906117389291906134a4565b5060408201518160020160006101000a81548160ff021916908315150217905550905050505050565b600460003373ffffffffffffffffffffffffffffffffffffffff1673ffffffffffffffffffffffffffffffffffffffff16815260200190815260200160002060009054906101000a900460ff166117b757600080fd5b6000600c82815481106117f3577f4e487b7100000000000000000000000000000000000000000000000000000000600052603260045260246000fd5b906000526020600020906004020160000160009054906101000a900473ffffffffffffffffffffffffffffffffffffffff1690506118318133612c84565b611870576040517f08c379a0000000000000000000000000000000000000000000000000000000008152600401611867906141d9565b60405180910390fd5b6002600c83815481106118ac577f4e487b7100000000000000000000000000000000000000000000000000000000600052603260045260246000fd5b906000526020600020906004020160030160006101000a81548160ff02191690836003811115611905577f4e487b7100000000000000000000000000000000000000000000000000000000600052602160045260246000fd5b02179055505050565b60606005805480602002602001604051908101604052809291908181526020016000905b828210156119de57838290600052602060002001805461195190614610565b80601f016020809104026020016040519081016040528092919081815260200182805461197d90614610565b80156119ca5780601f1061199f576101008083540402835291602001916119ca565b820191906000526020600020905b8154815290600101906020018083116119ad57829003601f168201915b505050505081526020019060010190611932565b50505050905090565b6060600c805480602002602001604051908101604052809291908181526020016000905b82821015611b7a57838290600052602060002090600402016040518060800160405290816000820160009054906101000a900473ffffffffffffffffffffffffffffffffffffffff1673ffffffffffffffffffffffffffffffffffffffff1673ffffffffffffffffffffffffffffffffffffffff1681526020016001820160009054906101000a900473ffffffffffffffffffffffffffffffffffffffff1673ffffffffffffffffffffffffffffffffffffffff1673ffffffffffffffffffffffffffffffffffffffff168152602001600282015481526020016003820160009054906101000a900460ff166003811115611b2f577f4e487b7100000000000000000000000000000000000000000000000000000000600052602160045260246000fd5b6003811115611b67577f4e487b7100000000000000000000000000000000000000000000000000000000600052602160045260246000fd5b8152505081526020019060010190611a0b565b50505050905090565b6006818051602081018201805184825260208301602085012081835280955050505050506000915090505481565b600460003373ffffffffffffffffffffffffffffffffffffffff1673ffffffffffffffffffffffffffffffffffffffff16815260200190815260200160002060009054906101000a900460ff16611c0757600080fd5b8151835114611c1557600080fd5b60005b8351811015611cbf57611cac848281518110611c5d577f4e487b7100000000000000000000000000000000000000000000000000000000600052603260045260246000fd5b6020026020010151848381518110611c9e577f4e487b7100000000000000000000000000000000000000000000000000000000600052603260045260246000fd5b602002602001015184610ff7565b8080611cb790614673565b915050611c18565b50505050565b600460003373ffffffffffffffffffffffffffffffffffffffff1673ffffffffffffffffffffffffffffffffffffffff16815260200190815260200160002060009054906101000a900460ff16611d1b57600080fd5b611d2481612b70565b611d63576040517f08c379a0000000000000000000000000000000000000000000000000000000008152600401611d5a906141b9565b60405180910390fd5b611d6d8133612c84565b611dac576040517f08c379a0000000000000000000000000000000000000000000000000000000008152600401611da390614079565b60405180910390fd5b600860008273ffffffffffffffffffffffffffffffffffffffff1673ffffffffffffffffffffffffffffffffffffffff16815260200190815260200160002060060160009054906101000a900460ff1615600860008373ffffffffffffffffffffffffffffffffffffffff1673ffffffffffffffffffffffffffffffffffffffff16815260200190815260200160002060060160006101000a81548160ff02191690831515021790555050565b60008054906101000a900473ffffffffffffffffffffffffffffffffffffffff1681565b6008602052806000526040600020600091509050806000015490806001018054611ea690614610565b80601f0160208091040260200160405190810160405280929190818152602001828054611ed290614610565b8015611f1f5780601f10611ef457610100808354040283529160200191611f1f565b820191906000526020600020905b815481529060010190602001808311611f0257829003601f168201915b5050505050908060020154908060030160009054906101000a900473ffffffffffffffffffffffffffffffffffffffff16908060040154908060050154908060060160009054906101000a900460ff16908060070154905088565b606060058281548110611fb6577f4e487b7100000000000000000000000000000000000000000000000000000000600052603260045260246000fd5b906000526020600020018054611fcb90614610565b80601f0160208091040260200160405190810160405280929190818152602001828054611ff790614610565b80156120445780601f1061201957610100808354040283529160200191612044565b820191906000526020600020905b81548152906001019060200180831161202757829003601f168201915b50505050509050919050565b60008054906101000a900473ffffffffffffffffffffffffffffffffffffffff1673ffffffffffffffffffffffffffffffffffffffff163373ffffffffffffffffffffffffffffffffffffffff16146120de576040517f08c379a00000000000000000000000000000000000000000000000000000000081526004016120d590614119565b60405180910390fd5b6005829080600181540180825580915050600190039060005260206000200160009091909190915090805190602001906121199291906134a4565b508060068360405161212b9190613f28565b908152602001604051809103902081905550600160078360405161214f9190613f28565b908152602001604051809103902060006101000a81548160ff0219169083151502179055505050565b600460003373ffffffffffffffffffffffffffffffffffffffff1673ffffffffffffffffffffffffffffffffffffffff16815260200190815260200160002060009054906101000a900460ff166121ce57600080fd5b6000600c828154811061220a577f4e487b7100000000000000000000000000000000000000000000000000000000600052603260045260246000fd5b906000526020600020906004020160000160009054906101000a900473ffffffffffffffffffffffffffffffffffffffff1690506122488133612c84565b612287576040517f08c379a000000000000000000000000000000000000000000000000000000000815260040161227e906141d9565b60405180910390fd5b6001600c83815481106122c3577f4e487b7100000000000000000000000000000000000000000000000000000000600052603260045260246000fd5b906000526020600020906004020160030160006101000a81548160ff0219169083600381111561231c577f4e487b7100000000000000000000000000000000000000000000000000000000600052602160045260246000fd5b021790555061232a826131f3565b5050565b60008054906101000a900473ffffffffffffffffffffffffffffffffffffffff1673ffffffffffffffffffffffffffffffffffffffff163373ffffffffffffffffffffffffffffffffffffffff16146123bc576040517f08c379a00000000000000000000000000000000000000000000000000000000081526004016123b390614119565b60405180910390fd5b806000806101000a81548173ffffffffffffffffffffffffffffffffffffffff021916908373ffffffffffffffffffffffffffffffffffffffff16021790555050565b6060600380548060200260200160405190810160405280929190818152602001828054801561248357602002820191906000526020600020905b8160009054906101000a900473ffffffffffffffffffffffffffffffffffffffff1673ffffffffffffffffffffffffffffffffffffffff1681526020019060010190808311612439575b5050505050905090565b60008054906101000a900473ffffffffffffffffffffffffffffffffffffffff1673ffffffffffffffffffffffffffffffffffffffff163373ffffffffffffffffffffffffffffffffffffffff161461251b576040517f08c379a000000000000000000000000000000000000000000000000000000000815260040161251290614119565b60405180910390fd5b8060068360405161252c9190613f28565b9081526020016040518091039020819055505050565b600460003373ffffffffffffffffffffffffffffffffffffffff1673ffffffffffffffffffffffffffffffffffffffff16815260200190815260200160002060009054906101000a900460ff1661259857600080fd5b6125a182612b70565b6125e0576040517f08c379a00000000000000000000000000000000000000000000000000000000081526004016125d7906141b9565b60405180910390fd5b600460008273ffffffffffffffffffffffffffffffffffffffff1673ffffffffffffffffffffffffffffffffffffffff16815260200190815260200160002060009054906101000a900460ff1661266c576040517f08c379a000000000000000000000000000000000000000000000000000000000815260040161266390614059565b60405180910390fd5b6126768233612c84565b6126b5576040517f08c379a00000000000000000000000000000000000000000000000000000000081526004016126ac90614079565b60405180910390fd5b80600860008473ffffffffffffffffffffffffffffffffffffffff1673ffffffffffffffffffffffffffffffffffffffff16815260200190815260200160002060030160006101000a81548173ffffffffffffffffffffffffffffffffffffffff021916908373ffffffffffffffffffffffffffffffffffffffff1602179055505050565b600a60205280600052604060002060009150905080600001549080600101805461276390614610565b80601f016020809104026020016040519081016040528092919081815260200182805461278f90614610565b80156127dc5780601f106127b1576101008083540402835291602001916127dc565b820191906000526020600020905b8154815290600101906020018083116127bf57829003601f168201915b5050505050908060020160009054906101000a900460ff16905083565b6005818154811061280957600080fd5b90600052602060002001600091509050805461282490614610565b80601f016020809104026020016040519081016040528092919081815260200182805461285090614610565b801561289d5780601f106128725761010080835404028352916020019161289d565b820191906000526020600020905b81548152906001019060200180831161288057829003601f168201915b505050505081565b60008054906101000a900473ffffffffffffffffffffffffffffffffffffffff1673ffffffffffffffffffffffffffffffffffffffff163373ffffffffffffffffffffffffffffffffffffffff1614612933576040517f08c379a000000000000000000000000000000000000000000000000000000000815260040161292a90614119565b60405180910390fd5b60005b825181101561299c5761298983828151811061297b577f4e487b7100000000000000000000000000000000000000000000000000000000600052603260045260246000fd5b602002602001015183612050565b808061299490614673565b915050612936565b505050565b60015481565b60008054906101000a900473ffffffffffffffffffffffffffffffffffffffff1673ffffffffffffffffffffffffffffffffffffffff163373ffffffffffffffffffffffffffffffffffffffff1614612a35576040517f08c379a0000000000000000000000000000000000000000000000000000000008152600401612a2c90614119565b60405180910390fd5b600a60008273ffffffffffffffffffffffffffffffffffffffff1673ffffffffffffffffffffffffffffffffffffffff16815260200190815260200160002060020160009054906101000a900460ff1615600a60008373ffffffffffffffffffffffffffffffffffffffff1673ffffffffffffffffffffffffffffffffffffffff16815260200190815260200160002060020160006101000a81548160ff02191690831515021790555050565b6060600b805480602002602001604051908101604052809291908181526020018280548015612b6657602002820191906000526020600020905b8160009054906101000a900473ffffffffffffffffffffffffffffffffffffffff1673ffffffffffffffffffffffffffffffffffffffff1681526020019060010190808311612b1c575b5050505050905090565b600080600090505b600980549050811015612c3a578273ffffffffffffffffffffffffffffffffffffffff1660098281548110612bd6577f4e487b7100000000000000000000000000000000000000000000000000000000600052603260045260246000fd5b9060005260206000200160009054906101000a900473ffffffffffffffffffffffffffffffffffffffff1673ffffffffffffffffffffffffffffffffffffffff161415612c27576001915050612c40565b8080612c3290614673565b915050612b78565b50600090505b919050565b600b8181548110612c5557600080fd5b906000526020600020016000915054906101000a900473ffffffffffffffffffffffffffffffffffffffff1681565b60008173ffffffffffffffffffffffffffffffffffffffff16600860008573ffffffffffffffffffffffffffffffffffffffff1673ffffffffffffffffffffffffffffffffffffffff16815260200190815260200160002060030160009054906101000a900473ffffffffffffffffffffffffffffffffffffffff1673ffffffffffffffffffffffffffffffffffffffff161415612d255760019050612d2a565b600090505b92915050565b600080600090505b600b80549050811015612dfa578273ffffffffffffffffffffffffffffffffffffffff16600b8281548110612d96577f4e487b7100000000000000000000000000000000000000000000000000000000600052603260045260246000fd5b9060005260206000200160009054906101000a900473ffffffffffffffffffffffffffffffffffffffff1673ffffffffffffffffffffffffffffffffffffffff161415612de7576001915050612e00565b8080612df290614673565b915050612d38565b50600090505b919050565b612e0e81612b70565b612e4d576040517f08c379a0000000000000000000000000000000000000000000000000000000008152600401612e4490614139565b60405180910390fd5b60004290506000600860008473ffffffffffffffffffffffffffffffffffffffff1673ffffffffffffffffffffffffffffffffffffffff16815260200190815260200160002060070154905062278d0081612ea8919061447d565b82111561304857600860008473ffffffffffffffffffffffffffffffffffffffff1673ffffffffffffffffffffffffffffffffffffffff16815260200190815260200160002060040154600860008573ffffffffffffffffffffffffffffffffffffffff1673ffffffffffffffffffffffffffffffffffffffff1681526020019081526020016000206005016000828254612f43919061447d565b925050819055506000600860008573ffffffffffffffffffffffffffffffffffffffff1673ffffffffffffffffffffffffffffffffffffffff168152602001908152602001600020600401819055506000601e90505b620186a081101561304657826201518082612fb491906144d3565b83612fbf919061447d565b11156130325762015180600182612fd6919061452d565b612fe091906144d3565b82612feb919061447d565b600860008673ffffffffffffffffffffffffffffffffffffffff1673ffffffffffffffffffffffffffffffffffffffff168152602001908152602001600020600701819055505b601e8161303f919061447d565b9050612f99565b505b505050565b600c60405180608001604052808573ffffffffffffffffffffffffffffffffffffffff1681526020018473ffffffffffffffffffffffffffffffffffffffff168152602001838152602001600060038111156130d2577f4e487b7100000000000000000000000000000000000000000000000000000000600052602160045260246000fd5b815250908060018154018082558091505060019003906000526020600020906004020160009091909190915060008201518160000160006101000a81548173ffffffffffffffffffffffffffffffffffffffff021916908373ffffffffffffffffffffffffffffffffffffffff16021790555060208201518160010160006101000a81548173ffffffffffffffffffffffffffffffffffffffff021916908373ffffffffffffffffffffffffffffffffffffffff1602179055506040820151816002015560608201518160030160006101000a81548160ff021916908360038111156131e7577f4e487b7100000000000000000000000000000000000000000000000000000000600052602160045260246000fd5b02179055505050505050565b6001600381111561322d577f4e487b7100000000000000000000000000000000000000000000000000000000600052602160045260246000fd5b600c8281548110613267577f4e487b7100000000000000000000000000000000000000000000000000000000600052603260045260246000fd5b906000526020600020906004020160030160009054906101000a900460ff1660038111156132be577f4e487b7100000000000000000000000000000000000000000000000000000000600052602160045260246000fd5b146132fe576040517f08c379a00000000000000000000000000000000000000000000000000000000081526004016132f590614159565b60405180910390fd5b6000600c828154811061333a577f4e487b7100000000000000000000000000000000000000000000000000000000600052603260045260246000fd5b906000526020600020906004020160010160009054906101000a900473ffffffffffffffffffffffffffffffffffffffff1690506000600c83815481106133aa577f4e487b7100000000000000000000000000000000000000000000000000000000600052603260045260246000fd5b90600052602060002090600402016002015490508173ffffffffffffffffffffffffffffffffffffffff166108fc829081150290604051600060405180830381858888f19350505050158015613404573d6000803e3d6000fd5b506003600c8481548110613441577f4e487b7100000000000000000000000000000000000000000000000000000000600052603260045260246000fd5b906000526020600020906004020160030160006101000a81548160ff0219169083600381111561349a577f4e487b7100000000000000000000000000000000000000000000000000000000600052602160045260246000fd5b0217905550505050565b8280546134b090614610565b90600052602060002090601f0160209004810192826134d25760008555613519565b82601f106134eb57805160ff1916838001178555613519565b82800160010185558215613519579182015b828111156135185782518255916020019190600101906134fd565b5b509050613526919061352a565b5090565b5b8082111561354357600081600090555060010161352b565b5090565b600061355a613555846142fc565b6142d7565b9050808382526020820190508285602086028201111561357957600080fd5b60005b858110156135a9578161358f8882613677565b84526020840193506020830192505060018101905061357c565b5050509392505050565b60006135c66135c184614328565b6142d7565b905080838252602082019050828560208602820111156135e557600080fd5b60005b8581101561362f57813567ffffffffffffffff81111561360757600080fd5b80860161361489826136e0565b855260208501945060208401935050506001810190506135e8565b5050509392505050565b600061364c61364784614354565b6142d7565b90508281526020810184848401111561366457600080fd5b61366f8482856145ce565b509392505050565b600081359050613686816149d8565b92915050565b600082601f83011261369d57600080fd5b81356136ad848260208601613547565b91505092915050565b600082601f8301126136c757600080fd5b81356136d78482602086016135b3565b91505092915050565b600082601f8301126136f157600080fd5b8135613701848260208601613639565b91505092915050565b600081359050613719816149ef565b92915050565b60006020828403121561373157600080fd5b600061373f84828501613677565b91505092915050565b6000806040838503121561375b57600080fd5b600061376985828601613677565b925050602061377a85828601613677565b9150509250929050565b60008060006060848603121561379957600080fd5b60006137a786828701613677565b935050602084013567ffffffffffffffff8111156137c457600080fd5b6137d0868287016136e0565b92505060406137e18682870161370a565b9150509250925092565b600080604083850312156137fe57600080fd5b600061380c85828601613677565b925050602061381d8582860161370a565b9150509250929050565b60008060006060848603121561383c57600080fd5b600084013567ffffffffffffffff81111561385657600080fd5b6138628682870161368c565b935050602084013567ffffffffffffffff81111561387f57600080fd5b61388b868287016136b6565b925050604061389c8682870161370a565b9150509250925092565b600080604083850312156138b957600080fd5b600083013567ffffffffffffffff8111156138d357600080fd5b6138df858286016136b6565b92505060206138f08582860161370a565b9150509250929050565b60006020828403121561390c57600080fd5b600082013567ffffffffffffffff81111561392657600080fd5b613932848285016136e0565b91505092915050565b6000806040838503121561394e57600080fd5b600083013567ffffffffffffffff81111561396857600080fd5b613974858286016136e0565b925050602061398585828601613677565b9150509250929050565b600080604083850312156139a257600080fd5b600083013567ffffffffffffffff8111156139bc57600080fd5b6139c8858286016136e0565b92505060206139d98582860161370a565b9150509250929050565b6000602082840312156139f557600080fd5b6000613a038482850161370a565b91505092915050565b6000613a188383613a50565b60208301905092915050565b6000613a308383613bcc565b905092915050565b6000613a448383613eb5565b60808301905092915050565b613a5981614561565b82525050565b613a6881614561565b82525050565b6000613a79826143ca565b613a83818561441d565b9350613a8e83614385565b8060005b83811015613abf578151613aa68882613a0c565b9750613ab1836143f6565b925050600181019050613a92565b5085935050505092915050565b6000613ad7826143d5565b613ae1818561442e565b935083602082028501613af385614395565b8060005b85811015613b2f5784840389528151613b108582613a24565b9450613b1b83614403565b925060208a01995050600181019050613af7565b50829750879550505050505092915050565b6000613b4c826143e0565b613b56818561443f565b9350613b61836143a5565b8060005b83811015613b92578151613b798882613a38565b9750613b8483614410565b925050600181019050613b65565b5085935050505092915050565b613ba881614573565b82525050565b613bb7816145bc565b82525050565b613bc6816145bc565b82525050565b6000613bd7826143eb565b613be18185614450565b9350613bf18185602086016145dd565b613bfa81614778565b840191505092915050565b6000613c10826143eb565b613c1a8185614461565b9350613c2a8185602086016145dd565b613c3381614778565b840191505092915050565b6000613c49826143eb565b613c538185614472565b9350613c638185602086016145dd565b80840191505092915050565b60008154613c7c81614610565b613c868186614472565b94506001821660008114613ca15760018114613cb257613ce5565b60ff19831686528186019350613ce5565b613cbb856143b5565b60005b83811015613cdd57815481890152600182019150602081019050613cbe565b838801955050505b50505092915050565b6000613cfb601683614461565b9150613d0682614789565b602082019050919050565b6000613d1e602383614461565b9150613d29826147b2565b604082019050919050565b6000613d41601383614461565b9150613d4c82614801565b602082019050919050565b6000613d64601683614461565b9150613d6f8261482a565b602082019050919050565b6000613d87601783614461565b9150613d9282614853565b602082019050919050565b6000613daa601383614461565b9150613db58261487c565b602082019050919050565b6000613dcd600983614461565b9150613dd8826148a5565b602082019050919050565b6000613df0600c83614461565b9150613dfb826148ce565b602082019050919050565b6000613e13601883614461565b9150613e1e826148f7565b602082019050919050565b6000613e36601683614461565b9150613e4182614920565b602082019050919050565b6000613e59601383614461565b9150613e6482614949565b602082019050919050565b6000613e7c601783614461565b9150613e8782614972565b602082019050919050565b6000613e9f601683614461565b9150613eaa8261499b565b602082019050919050565b608082016000820151613ecb6000850182613a50565b506020820151613ede6020850182613a50565b506040820151613ef16040850182613f0a565b506060820151613f046060850182613bae565b50505050565b613f13816145b2565b82525050565b613f22816145b2565b82525050565b6000613f348284613c3e565b915081905092915050565b6000613f4b8284613c6f565b915081905092915050565b6000602082019050613f6b6000830184613a5f565b92915050565b6000608082019050613f866000830187613a5f565b613f936020830186613a5f565b613fa06040830185613f19565b613fad6060830184613bbd565b95945050505050565b60006020820190508181036000830152613fd08184613a6e565b905092915050565b60006020820190508181036000830152613ff28184613acc565b905092915050565b600060208201905081810360008301526140148184613b41565b905092915050565b60006020820190506140316000830184613b9f565b92915050565b600060208201905081810360008301526140518184613c05565b905092915050565b6000602082019050818103600083015261407281613cee565b9050919050565b6000602082019050818103600083015261409281613d11565b9050919050565b600060208201905081810360008301526140b281613d34565b9050919050565b600060208201905081810360008301526140d281613d57565b9050919050565b600060208201905081810360008301526140f281613d7a565b9050919050565b6000602082019050818103600083015261411281613d9d565b9050919050565b6000602082019050818103600083015261413281613dc0565b9050919050565b6000602082019050818103600083015261415281613de3565b9050919050565b6000602082019050818103600083015261417281613e06565b9050919050565b6000602082019050818103600083015261419281613e29565b9050919050565b600060208201905081810360008301526141b281613e4c565b9050919050565b600060208201905081810360008301526141d281613e6f565b9050919050565b600060208201905081810360008301526141f281613e92565b9050919050565b600060208201905061420e6000830184613f19565b92915050565b60006060820190506142296000830186613f19565b818103602083015261423b8185613c05565b905061424a6040830184613b9f565b949350505050565b600061010082019050614268600083018b613f19565b818103602083015261427a818a613c05565b90506142896040830189613f19565b6142966060830188613a5f565b6142a36080830187613f19565b6142b060a0830186613f19565b6142bd60c0830185613b9f565b6142ca60e0830184613f19565b9998505050505050505050565b60006142e16142f2565b90506142ed8282614642565b919050565b6000604051905090565b600067ffffffffffffffff82111561431757614316614749565b5b602082029050602081019050919050565b600067ffffffffffffffff82111561434357614342614749565b5b602082029050602081019050919050565b600067ffffffffffffffff82111561436f5761436e614749565b5b61437882614778565b9050602081019050919050565b6000819050602082019050919050565b6000819050602082019050919050565b6000819050602082019050919050565b60008190508160005260206000209050919050565b600081519050919050565b600081519050919050565b600081519050919050565b600081519050919050565b6000602082019050919050565b6000602082019050919050565b6000602082019050919050565b600082825260208201905092915050565b600082825260208201905092915050565b600082825260208201905092915050565b600082825260208201905092915050565b600082825260208201905092915050565b600081905092915050565b6000614488826145b2565b9150614493836145b2565b9250827fffffffffffffffffffffffffffffffffffffffffffffffffffffffffffffffff038211156144c8576144c76146bc565b5b828201905092915050565b60006144de826145b2565b91506144e9836145b2565b9250817fffffffffffffffffffffffffffffffffffffffffffffffffffffffffffffffff0483118215151615614522576145216146bc565b5b828202905092915050565b6000614538826145b2565b9150614543836145b2565b925082821015614556576145556146bc565b5b828203905092915050565b600061456c82614592565b9050919050565b60008115159050919050565b600081905061458d826149c4565b919050565b600073ffffffffffffffffffffffffffffffffffffffff82169050919050565b6000819050919050565b60006145c78261457f565b9050919050565b82818337600083830152505050565b60005b838110156145fb5780820151818401526020810190506145e0565b8381111561460a576000848401525b50505050565b6000600282049050600182168061462857607f821691505b6020821081141561463c5761463b61471a565b5b50919050565b61464b82614778565b810181811067ffffffffffffffff8211171561466a57614669614749565b5b80604052505050565b600061467e826145b2565b91507fffffffffffffffffffffffffffffffffffffffffffffffffffffffffffffffff8214156146b1576146b06146bc565b5b600182019050919050565b7f4e487b7100000000000000000000000000000000000000000000000000000000600052601160045260246000fd5b7f4e487b7100000000000000000000000000000000000000000000000000000000600052602160045260246000fd5b7f4e487b7100000000000000000000000000000000000000000000000000000000600052602260045260246000fd5b7f4e487b7100000000000000000000000000000000000000000000000000000000600052604160045260246000fd5b6000601f19601f8301169050919050565b7f6d616e6167657220646f6573206e6f7420657869737400000000000000000000600082015250565b7f796f7520617265206e6f74206d616e61676572206f662074686520656d706c6f60008201527f7965650000000000000000000000000000000000000000000000000000000000602082015250565b7f6e6f7420656e6f756768742062616c616e636500000000000000000000000000600082015250565b7f4d65726368616e7420616c726561647920657869737400000000000000000000600082015250565b7f4d65726368616e7420646f6573206e6f74206578697374000000000000000000600082015250565b7f726f6c6520646f6573206e6f7420657869737400000000000000000000000000600082015250565b7f4e6f74206f776e65720000000000000000000000000000000000000000000000600082015250565b7f6e6f7420656d706c6f7965650000000000000000000000000000000000000000600082015250565b7f7472616e73616374696f6e206e6f7420617070726f7665640000000000000000600082015250565b7f656d706c6f79656520616c726561647920657869737400000000000000000000600082015250565b7f6e6f742061637469766520656d706c6f79656500000000000000000000000000600082015250565b7f656d706c6f79656520646f6573206e6f74206578697374000000000000000000600082015250565b7f6e6f7420656d706c6f7965652773206d616e6167657200000000000000000000600082015250565b600481106149d5576149d46146eb565b5b50565b6149e181614561565b81146149ec57600080fd5b50565b6149f8816145b2565b8114614a0357600080fd5b5056fea2646970667358221220a089b584d0242832b4cc91f20be41d8424b8415034eacfbc55cbb2632f9e375264736f6c63430008040033",
  "linkReferences": {},
  "deployedLinkReferences": {}
}