{
  "_format": "hh-sol-artifact-1",
  "contractName": "CorporateAccount",
  "sourceName": "contracts/Contract.sol",
  "abi": [
    {
      "inputs": [
        {
          "internalType": "address[]",
          "name": "_mgrs",
          "type": "address[]"
        },
        {
          "internalType": "address",
          "name": "_mappingContract",
          "type": "address"
        }
      ],
      "stateMutability": "nonpayable",
      "type": "constructor"
    },
    {
      "stateMutability": "payable",
      "type": "fallback"
    },
    {
      "inputs": [
        {
          "internalType": "address",
          "name": "",
          "type": "address"
        }
      ],
      "name": "EmployeeProfile",
      "outputs": [
        {
          "internalType": "uint256",
          "name": "id",
          "type": "uint256"
        },
        {
          "internalType": "string",
          "name": "name",
          "type": "string"
        },
        {
          "internalType": "uint256",
          "name": "roleId",
          "type": "uint256"
        },
        {
          "internalType": "address",
          "name": "myManager",
          "type": "address"
        },
        {
          "internalType": "uint256",
          "name": "spent",
          "type": "uint256"
        },
        {
          "internalType": "uint256",
          "name": "totalSpent",
          "type": "uint256"
        },
        {
          "internalType": "bool",
          "name": "active",
          "type": "bool"
        },
        {
          "internalType": "uint256",
          "name": "lastRefresh",
          "type": "uint256"
        }
      ],
      "stateMutability": "view",
      "type": "function"
    },
    {
      "inputs": [
        {
          "internalType": "uint256",
          "name": "",
          "type": "uint256"
        }
      ],
      "name": "Employees",
      "outputs": [
        {
          "internalType": "address",
          "name": "",
          "type": "address"
        }
      ],
      "stateMutability": "view",
      "type": "function"
    },
    {
      "inputs": [
        {
          "internalType": "address",
          "name": "",
          "type": "address"
        }
      ],
      "name": "MerchantProfile",
      "outputs": [
        {
          "internalType": "uint256",
          "name": "id",
          "type": "uint256"
        },
        {
          "internalType": "string",
          "name": "name",
          "type": "string"
        },
        {
          "internalType": "bool",
          "name": "active",
          "type": "bool"
        }
      ],
      "stateMutability": "view",
      "type": "function"
    },
    {
      "inputs": [
        {
          "internalType": "uint256",
          "name": "",
          "type": "uint256"
        }
      ],
      "name": "Merchants",
      "outputs": [
        {
          "internalType": "address",
          "name": "",
          "type": "address"
        }
      ],
      "stateMutability": "view",
      "type": "function"
    },
    {
      "inputs": [
        {
          "internalType": "uint256",
          "name": "",
          "type": "uint256"
        }
      ],
      "name": "Transactions",
      "outputs": [
        {
          "internalType": "address",
          "name": "employee",
          "type": "address"
        },
        {
          "internalType": "address",
          "name": "merchants",
          "type": "address"
        },
        {
          "internalType": "uint256",
          "name": "value",
          "type": "uint256"
        },
        {
          "internalType": "enum CorporateAccount.Status",
          "name": "txStatus",
          "type": "uint8"
        }
      ],
      "stateMutability": "view",
      "type": "function"
    },
    {
      "inputs": [
        {
          "internalType": "address",
          "name": "_employee",
          "type": "address"
        }
      ],
      "name": "activeEmployee",
      "outputs": [],
      "stateMutability": "nonpayable",
      "type": "function"
    },
    {
      "inputs": [
        {
          "internalType": "address",
          "name": "_merchant",
          "type": "address"
        }
      ],
      "name": "activeMerchant",
      "outputs": [],
      "stateMutability": "nonpayable",
      "type": "function"
    },
    {
      "inputs": [
        {
          "internalType": "address",
          "name": "_employee",
          "type": "address"
        },
        {
          "internalType": "string",
          "name": "_name",
          "type": "string"
        },
        {
          "internalType": "uint256",
          "name": "_roleId",
          "type": "uint256"
        }
      ],
      "name": "addEmployee",
      "outputs": [],
      "stateMutability": "nonpayable",
      "type": "function"
    },
    {
      "inputs": [
        {
          "internalType": "address[]",
          "name": "_employees",
          "type": "address[]"
        },
        {
          "internalType": "string[]",
          "name": "_names",
          "type": "string[]"
        },
        {
          "internalType": "uint256",
          "name": "_roleId",
          "type": "uint256"
        }
      ],
      "name": "addEmployees",
      "outputs": [],
      "stateMutability": "nonpayable",
      "type": "function"
    },
    {
      "inputs": [
        {
          "internalType": "string",
          "name": "_name",
          "type": "string"
        },
        {
          "internalType": "address",
          "name": "_merchant",
          "type": "address"
        }
      ],
      "name": "addMerchant",
      "outputs": [],
      "stateMutability": "nonpayable",
      "type": "function"
    },
    {
      "inputs": [
        {
          "internalType": "string",
          "name": "_role",
          "type": "string"
        },
        {
          "internalType": "uint256",
          "name": "_budget",
          "type": "uint256"
        }
      ],
      "name": "addRole",
      "outputs": [],
      "stateMutability": "nonpayable",
      "type": "function"
    },
    {
      "inputs": [
        {
          "internalType": "string[]",
          "name": "_roles",
          "type": "string[]"
        },
        {
          "internalType": "uint256",
          "name": "_budget",
          "type": "uint256"
        }
      ],
      "name": "addRoles",
      "outputs": [],
      "stateMutability": "nonpayable",
      "type": "function"
    },
    {
      "inputs": [
        {
          "internalType": "uint256",
          "name": "_id",
          "type": "uint256"
        }
      ],
      "name": "approveLargeTx",
      "outputs": [],
      "stateMutability": "nonpayable",
      "type": "function"
    },
    {
      "inputs": [
        {
          "internalType": "string",
          "name": "_role",
          "type": "string"
        },
        {
          "internalType": "uint256",
          "name": "_amt",
          "type": "uint256"
        }
      ],
      "name": "changeBudget",
      "outputs": [],
      "stateMutability": "nonpayable",
      "type": "function"
    },
    {
      "inputs": [
        {
          "internalType": "address",
          "name": "_employee",
          "type": "address"
        },
        {
          "internalType": "address",
          "name": "_manager",
          "type": "address"
        }
      ],
      "name": "changeManager",
      "outputs": [],
      "stateMutability": "nonpayable",
      "type": "function"
    },
    {
      "inputs": [
        {
          "internalType": "address",
          "name": "_newowner",
          "type": "address"
        }
      ],
      "name": "changeOwner",
      "outputs": [],
      "stateMutability": "nonpayable",
      "type": "function"
    },
    {
      "inputs": [
        {
          "internalType": "address",
          "name": "_employee",
          "type": "address"
        },
        {
          "internalType": "uint256",
          "name": "_newRole",
          "type": "uint256"
        }
      ],
      "name": "changeRole",
      "outputs": [],
      "stateMutability": "nonpayable",
      "type": "function"
    },
    {
      "inputs": [
        {
          "internalType": "string",
          "name": "_role",
          "type": "string"
        }
      ],
      "name": "deactiveRole",
      "outputs": [],
      "stateMutability": "nonpayable",
      "type": "function"
    },
    {
      "inputs": [
        {
          "internalType": "uint256",
          "name": "_id",
          "type": "uint256"
        }
      ],
      "name": "disApproveLargeTx",
      "outputs": [],
      "stateMutability": "nonpayable",
      "type": "function"
    },
    {
      "inputs": [],
      "name": "getEmployees",
      "outputs": [
        {
          "internalType": "address[]",
          "name": "",
          "type": "address[]"
        }
      ],
      "stateMutability": "view",
      "type": "function"
    },
    {
      "inputs": [],
      "name": "getManagers",
      "outputs": [
        {
          "internalType": "address[]",
          "name": "",
          "type": "address[]"
        }
      ],
      "stateMutability": "view",
      "type": "function"
    },
    {
      "inputs": [],
      "name": "getMerchants",
      "outputs": [
        {
          "internalType": "address[]",
          "name": "",
          "type": "address[]"
        }
      ],
      "stateMutability": "view",
      "type": "function"
    },
    {
      "inputs": [],
      "name": "getRoles",
      "outputs": [
        {
          "internalType": "string[]",
          "name": "",
          "type": "string[]"
        }
      ],
      "stateMutability": "view",
      "type": "function"
    },
    {
      "inputs": [
        {
          "internalType": "address",
          "name": "_employee",
          "type": "address"
        }
      ],
      "name": "isEmployee",
      "outputs": [
        {
          "internalType": "bool",
          "name": "",
          "type": "bool"
        }
      ],
      "stateMutability": "view",
      "type": "function"
    },
    {
      "inputs": [
        {
          "internalType": "uint256",
          "name": "",
          "type": "uint256"
        }
      ],
      "name": "managers",
      "outputs": [
        {
          "internalType": "address",
          "name": "",
          "type": "address"
        }
      ],
      "stateMutability": "view",
      "type": "function"
    },
    {
      "inputs": [],
      "name": "myRole",
      "outputs": [
        {
          "internalType": "string",
          "name": "",
          "type": "string"
        }
      ],
      "stateMutability": "view",
      "type": "function"
    },
    {
      "inputs": [],
      "name": "owner",
      "outputs": [
        {
          "internalType": "address",
          "name": "",
          "type": "address"
        }
      ],
      "stateMutability": "view",
      "type": "function"
    },
    {
      "inputs": [],
      "name": "required",
      "outputs": [
        {
          "internalType": "uint256",
          "name": "",
          "type": "uint256"
        }
      ],
      "stateMutability": "view",
      "type": "function"
    },
    {
      "inputs": [
        {
          "internalType": "string",
          "name": "",
          "type": "string"
        }
      ],
      "name": "roleActive",
      "outputs": [
        {
          "internalType": "bool",
          "name": "",
          "type": "bool"
        }
      ],
      "stateMutability": "view",
      "type": "function"
    },
    {
      "inputs": [
        {
          "internalType": "string",
          "name": "",
          "type": "string"
        }
      ],
      "name": "roleBudget",
      "outputs": [
        {
          "internalType": "uint256",
          "name": "",
          "type": "uint256"
        }
      ],
      "stateMutability": "view",
      "type": "function"
    },
    {
      "inputs": [
        {
          "internalType": "uint256",
          "name": "roleId",
          "type": "uint256"
        }
      ],
      "name": "roleName",
      "outputs": [
        {
          "internalType": "string",
          "name": "",
          "type": "string"
        }
      ],
      "stateMutability": "view",
      "type": "function"
    },
    {
      "inputs": [
        {
          "internalType": "uint256",
          "name": "",
          "type": "uint256"
        }
      ],
      "name": "roleNames",
      "outputs": [
        {
          "internalType": "string",
          "name": "",
          "type": "string"
        }
      ],
      "stateMutability": "view",
      "type": "function"
    },
    {
      "inputs": [
        {
          "internalType": "address",
          "name": "_merchant",
          "type": "address"
        },
        {
          "internalType": "uint256",
          "name": "_value",
          "type": "uint256"
        }
      ],
      "name": "submitTransaction",
      "outputs": [],
      "stateMutability": "nonpayable",
      "type": "function"
    },
    {
      "stateMutability": "payable",
      "type": "receive"
    }
  ],
  "bytecode": "0x60806040523480156200001157600080fd5b5060405162004ba238038062004ba283398181016040528101906200003791906200033a565b60008251116200004657600080fd5b336000806101000a81548173ffffffffffffffffffffffffffffffffffffffff021916908373ffffffffffffffffffffffffffffffffffffffff16021790555081600390805190602001906200009e929190620001d3565b5060005b82518110156200015b57600160046000858481518110620000ec577f4e487b7100000000000000000000000000000000000000000000000000000000600052603260045260246000fd5b602002602001015173ffffffffffffffffffffffffffffffffffffffff1673ffffffffffffffffffffffffffffffffffffffff16815260200190815260200160002060006101000a81548160ff021916908315150217905550808062000152906200048e565b915050620000a2565b508073ffffffffffffffffffffffffffffffffffffffff1663e89b0e1e306040518263ffffffff1660e01b8152600401620001979190620003a5565b600060405180830381600087803b158015620001b257600080fd5b505af1158015620001c7573d6000803e3d6000fd5b50505050505062000565565b8280548282559060005260206000209081019282156200024f579160200282015b828111156200024e5782518260006101000a81548173ffffffffffffffffffffffffffffffffffffffff021916908373ffffffffffffffffffffffffffffffffffffffff16021790555091602001919060010190620001f4565b5b5090506200025e919062000262565b5090565b5b808211156200027d57600081600090555060010162000263565b5090565b6000620002986200029284620003eb565b620003c2565b90508083825260208201905082856020860282011115620002b857600080fd5b60005b85811015620002ec5781620002d18882620002f6565b845260208401935060208301925050600181019050620002bb565b5050509392505050565b60008151905062000307816200054b565b92915050565b600082601f8301126200031f57600080fd5b81516200033184826020860162000281565b91505092915050565b600080604083850312156200034e57600080fd5b600083015167ffffffffffffffff8111156200036957600080fd5b62000377858286016200030d565b92505060206200038a85828601620002f6565b9150509250929050565b6200039f816200041a565b82525050565b6000602082019050620003bc600083018462000394565b92915050565b6000620003ce620003e1565b9050620003dc828262000458565b919050565b6000604051905090565b600067ffffffffffffffff8211156200040957620004086200050b565b5b602082029050602081019050919050565b600062000427826200042e565b9050919050565b600073ffffffffffffffffffffffffffffffffffffffff82169050919050565b6000819050919050565b62000463826200053a565b810181811067ffffffffffffffff821117156200048557620004846200050b565b5b80604052505050565b60006200049b826200044e565b91507fffffffffffffffffffffffffffffffffffffffffffffffffffffffffffffffff821415620004d157620004d0620004dc565b5b600182019050919050565b7f4e487b7100000000000000000000000000000000000000000000000000000000600052601160045260246000fd5b7f4e487b7100000000000000000000000000000000000000000000000000000000600052604160045260246000fd5b6000601f19601f8301169050919050565b62000556816200041a565b81146200056257600080fd5b50565b61462d80620005756000396000f3fe6080604052600436106101f25760003560e01c80638da5cb5b1161010d578063b14cf5e0116100a0578063dc8452cd1161006f578063dc8452cd14610741578063dcd7207e1461076c578063e2d1800f14610795578063ea66543f146107c0578063ec4725c5146107fd576101f9565b8063b14cf5e014610673578063c47aeeac1461069c578063c7764aa2146106db578063d5a0ec9414610718576101f9565b8063a6d99c1c116100dc578063a6d99c1c146105cd578063a6f9dae1146105f6578063a8d088bb1461061f578063b0a233561461064a576101f9565b80638da5cb5b146104f857806391874e93146105235780639b47ad1214610567578063a02be771146105a4576101f9565b80633d39c260116101855780637106139811610154578063710613981461043e57806386b0d90614610469578063883c622a146104a65780638b34365a146104cf576101f9565b80633d39c260146103845780634abefa36146103c157806358a5e6ca146103ec5780636384031614610415576101f9565b80632274fab6116101c15780632274fab6146102b557806328f7aa36146102de57806334008b16146103075780633a1d157614610347576101f9565b8063067a6b05146101fb5780630acfd58e14610226578063151c259f1461024f5780631d43b6531461028c576101f9565b366101f957005b005b34801561020757600080fd5b5061021061083a565b60405161021d9190613c61565b60405180910390f35b34801561023257600080fd5b5061024d60048036038101906102489190613520565b6109e3565b005b34801561025b57600080fd5b5061027660048036038101906102719190613718565b610b5d565b6040516102839190613ba2565b60405180910390f35b34801561029857600080fd5b506102b360048036038101906102ae9190613520565b610b9c565b005b3480156102c157600080fd5b506102dc60048036038101906102d7919061362f565b610ed7565b005b3480156102ea57600080fd5b50610305600480360381019061030091906134b9565b610f9f565b005b34801561031357600080fd5b5061032e60048036038101906103299190613718565b6112b2565b60405161033e9493929190613bbd565b60405180910390f35b34801561035357600080fd5b5061036e6004803603810190610369919061362f565b61133f565b60405161037b9190613c46565b60405180910390f35b34801561039057600080fd5b506103ab60048036038101906103a69190613718565b611375565b6040516103b89190613ba2565b60405180910390f35b3480156103cd57600080fd5b506103d66113b4565b6040516103e39190613c02565b60405180910390f35b3480156103f857600080fd5b50610413600480360381019061040e9190613670565b611442565b005b34801561042157600080fd5b5061043c60048036038101906104379190613718565b611632565b005b34801561044a57600080fd5b506104536117e8565b6040516104609190613c24565b60405180910390f35b34801561047557600080fd5b50610490600480360381019061048b919061362f565b6118c1565b60405161049d9190613e23565b60405180910390f35b3480156104b257600080fd5b506104cd60048036038101906104c8919061355c565b6118ef565b005b3480156104db57600080fd5b506104f660048036038101906104f19190613454565b611a03565b005b34801561050457600080fd5b5061050d611b97565b60405161051a9190613ba2565b60405180910390f35b34801561052f57600080fd5b5061054a60048036038101906105459190613454565b611bbb565b60405161055e989796959493929190613e7c565b60405180910390f35b34801561057357600080fd5b5061058e60048036038101906105899190613718565b611cb8565b60405161059b9190613c61565b60405180910390f35b3480156105b057600080fd5b506105cb60048036038101906105c691906136c4565b611d8e565b005b3480156105d957600080fd5b506105f460048036038101906105ef9190613718565b611eb6565b005b34801561060257600080fd5b5061061d60048036038101906106189190613454565b612063565b005b34801561062b57600080fd5b50610634612134565b6040516106419190613c02565b60405180910390f35b34801561065657600080fd5b50610671600480360381019061066c91906136c4565b6121c2565b005b34801561067f57600080fd5b5061069a6004803603810190610695919061347d565b612277565b005b3480156106a857600080fd5b506106c360048036038101906106be9190613454565b61246f565b6040516106d293929190613e3e565b60405180910390f35b3480156106e757600080fd5b5061070260048036038101906106fd9190613718565b61252e565b60405161070f9190613c61565b60405180910390f35b34801561072457600080fd5b5061073f600480360381019061073a91906135db565b6125da565b005b34801561074d57600080fd5b506107566126d6565b6040516107639190613e23565b60405180910390f35b34801561077857600080fd5b50610793600480360381019061078e9190613454565b6126dc565b005b3480156107a157600080fd5b506107aa612817565b6040516107b79190613c02565b60405180910390f35b3480156107cc57600080fd5b506107e760048036038101906107e29190613454565b6128a5565b6040516107f49190613c46565b60405180910390f35b34801561080957600080fd5b50610824600480360381019061081f9190613718565b61297a565b6040516108319190613ba2565b60405180910390f35b60603373ffffffffffffffffffffffffffffffffffffffff1660008054906101000a900473ffffffffffffffffffffffffffffffffffffffff1673ffffffffffffffffffffffffffffffffffffffff1614156108cd576040518060400160405280600581526020017f6f776e657200000000000000000000000000000000000000000000000000000081525090506109e0565b600460003373ffffffffffffffffffffffffffffffffffffffff1673ffffffffffffffffffffffffffffffffffffffff16815260200190815260200160002060009054906101000a900460ff161561095c576040518060400160405280600781526020017f6d616e616765720000000000000000000000000000000000000000000000000081525090506109e0565b610965336128a5565b156109a7576040518060400160405280600881526020017f656d706c6f79656500000000000000000000000000000000000000000000000081525090506109e0565b6040518060400160405280600281526020017f6e6100000000000000000000000000000000000000000000000000000000000081525090505b90565b600460003373ffffffffffffffffffffffffffffffffffffffff1673ffffffffffffffffffffffffffffffffffffffff16815260200190815260200160002060009054906101000a900460ff16610a3957600080fd5b610a42826128a5565b610a81576040517f08c379a0000000000000000000000000000000000000000000000000000000008152600401610a7890613de3565b60405180910390fd5b600580549050811115610ac9576040517f08c379a0000000000000000000000000000000000000000000000000000000008152600401610ac090613d23565b60405180910390fd5b610ad382336129b9565b610b12576040517f08c379a0000000000000000000000000000000000000000000000000000000008152600401610b0990613ca3565b60405180910390fd5b80600860008473ffffffffffffffffffffffffffffffffffffffff1673ffffffffffffffffffffffffffffffffffffffff168152602001908152602001600020600201819055505050565b60098181548110610b6d57600080fd5b906000526020600020016000915054906101000a900473ffffffffffffffffffffffffffffffffffffffff1681565b600460003373ffffffffffffffffffffffffffffffffffffffff1673ffffffffffffffffffffffffffffffffffffffff16815260200190815260200160002060009054906101000a900460ff1680610c405750600860003373ffffffffffffffffffffffffffffffffffffffff1673ffffffffffffffffffffffffffffffffffffffff16815260200190815260200160002060060160009054906101000a900460ff165b610c4957600080fd5b600860003373ffffffffffffffffffffffffffffffffffffffff1673ffffffffffffffffffffffffffffffffffffffff16815260200190815260200160002060060160009054906101000a900460ff16610cd8576040517f08c379a0000000000000000000000000000000000000000000000000000000008152600401610ccf90613dc3565b60405180910390fd5b80471015610d1b576040517f08c379a0000000000000000000000000000000000000000000000000000000008152600401610d1290613cc3565b60405180910390fd5b610d2482612a65565b610d63576040517f08c379a0000000000000000000000000000000000000000000000000000000008152600401610d5a90613d03565b60405180910390fd5b610d6c33612b3a565b6000600860003373ffffffffffffffffffffffffffffffffffffffff1673ffffffffffffffffffffffffffffffffffffffff1681526020019081526020016000206002015490506000600660058381548110610df1577f4e487b7100000000000000000000000000000000000000000000000000000000600052603260045260246000fd5b90600052602060002001604051610e089190613b8b565b90815260200160405180910390205490506000600860003373ffffffffffffffffffffffffffffffffffffffff1673ffffffffffffffffffffffffffffffffffffffff16815260200190815260200160002060040154905060008183610e6e919061411e565b9050808511610ec3578573ffffffffffffffffffffffffffffffffffffffff166108fc869081150290604051600060405180830381858888f19350505050158015610ebd573d6000803e3d6000fd5b50610ecf565b610ece338787612d82565b5b505050505050565b60008054906101000a900473ffffffffffffffffffffffffffffffffffffffff1673ffffffffffffffffffffffffffffffffffffffff163373ffffffffffffffffffffffffffffffffffffffff1614610f65576040517f08c379a0000000000000000000000000000000000000000000000000000000008152600401610f5c90613d43565b60405180910390fd5b6000600782604051610f779190613b74565b908152602001604051809103902060006101000a81548160ff02191690831515021790555050565b600460003373ffffffffffffffffffffffffffffffffffffffff1673ffffffffffffffffffffffffffffffffffffffff16815260200190815260200160002060009054906101000a900460ff16610ff557600080fd5b600760058281548110611031577f4e487b7100000000000000000000000000000000000000000000000000000000600052603260045260246000fd5b906000526020600020016040516110489190613b8b565b908152602001604051809103902060009054906101000a900460ff166110a3576040517f08c379a000000000000000000000000000000000000000000000000000000000815260040161109a90613d23565b60405180910390fd5b6110ac836128a5565b156110ec576040517f08c379a00000000000000000000000000000000000000000000000000000000081526004016110e390613da3565b60405180910390fd5b600060098054905090506009849080600181540180825580915050600190039060005260206000200160009091909190916101000a81548173ffffffffffffffffffffffffffffffffffffffff021916908373ffffffffffffffffffffffffffffffffffffffff16021790555060004290506040518061010001604052808381526020018581526020018481526020013373ffffffffffffffffffffffffffffffffffffffff168152602001600081526020016000815260200160011515815260200182815250600860008773ffffffffffffffffffffffffffffffffffffffff1673ffffffffffffffffffffffffffffffffffffffff1681526020019081526020016000206000820151816000015560208201518160010190805190602001906112189291906131d9565b506040820151816002015560608201518160030160006101000a81548173ffffffffffffffffffffffffffffffffffffffff021916908373ffffffffffffffffffffffffffffffffffffffff1602179055506080820151816004015560a0820151816005015560c08201518160060160006101000a81548160ff02191690831515021790555060e082015181600701559050505050505050565b600c81815481106112c257600080fd5b90600052602060002090600402016000915090508060000160009054906101000a900473ffffffffffffffffffffffffffffffffffffffff16908060010160009054906101000a900473ffffffffffffffffffffffffffffffffffffffff16908060020154908060030160009054906101000a900460ff16905084565b6007818051602081018201805184825260208301602085012081835280955050505050506000915054906101000a900460ff1681565b6003818154811061138557600080fd5b906000526020600020016000915054906101000a900473ffffffffffffffffffffffffffffffffffffffff1681565b6060600980548060200260200160405190810160405280929190818152602001828054801561143857602002820191906000526020600020905b8160009054906101000a900473ffffffffffffffffffffffffffffffffffffffff1673ffffffffffffffffffffffffffffffffffffffff16815260200190600101908083116113ee575b5050505050905090565b60008054906101000a900473ffffffffffffffffffffffffffffffffffffffff1673ffffffffffffffffffffffffffffffffffffffff163373ffffffffffffffffffffffffffffffffffffffff16146114d0576040517f08c379a00000000000000000000000000000000000000000000000000000000081526004016114c790613d43565b60405180910390fd5b6114d981612a65565b15611519576040517f08c379a000000000000000000000000000000000000000000000000000000000815260040161151090613ce3565b60405180910390fd5b6000600b805490509050600b829080600181540180825580915050600190039060005260206000200160009091909190916101000a81548173ffffffffffffffffffffffffffffffffffffffff021916908373ffffffffffffffffffffffffffffffffffffffff160217905550604051806060016040528082815260200184815260200160011515815250600a60008473ffffffffffffffffffffffffffffffffffffffff1673ffffffffffffffffffffffffffffffffffffffff1681526020019081526020016000206000820151816000015560208201518160010190805190602001906116099291906131d9565b5060408201518160020160006101000a81548160ff021916908315150217905550905050505050565b600460003373ffffffffffffffffffffffffffffffffffffffff1673ffffffffffffffffffffffffffffffffffffffff16815260200190815260200160002060009054906101000a900460ff1661168857600080fd5b6000600c82815481106116c4577f4e487b7100000000000000000000000000000000000000000000000000000000600052603260045260246000fd5b906000526020600020906004020160000160009054906101000a900473ffffffffffffffffffffffffffffffffffffffff16905061170281336129b9565b611741576040517f08c379a000000000000000000000000000000000000000000000000000000000815260040161173890613e03565b60405180910390fd5b6002600c838154811061177d577f4e487b7100000000000000000000000000000000000000000000000000000000600052603260045260246000fd5b906000526020600020906004020160030160006101000a81548160ff021916908360038111156117d6577f4e487b7100000000000000000000000000000000000000000000000000000000600052602160045260246000fd5b02179055506117e482612f28565b5050565b60606005805480602002602001604051908101604052809291908181526020016000905b828210156118b857838290600052602060002001805461182b90614201565b80601f016020809104026020016040519081016040528092919081815260200182805461185790614201565b80156118a45780601f10611879576101008083540402835291602001916118a4565b820191906000526020600020905b81548152906001019060200180831161188757829003601f168201915b50505050508152602001906001019061180c565b50505050905090565b6006818051602081018201805184825260208301602085012081835280955050505050506000915090505481565b600460003373ffffffffffffffffffffffffffffffffffffffff1673ffffffffffffffffffffffffffffffffffffffff16815260200190815260200160002060009054906101000a900460ff1661194557600080fd5b815183511461195357600080fd5b60005b83518110156119fd576119ea84828151811061199b577f4e487b7100000000000000000000000000000000000000000000000000000000600052603260045260246000fd5b60200260200101518483815181106119dc577f4e487b7100000000000000000000000000000000000000000000000000000000600052603260045260246000fd5b602002602001015184610f9f565b80806119f590614264565b915050611956565b50505050565b600460003373ffffffffffffffffffffffffffffffffffffffff1673ffffffffffffffffffffffffffffffffffffffff16815260200190815260200160002060009054906101000a900460ff16611a5957600080fd5b611a62816128a5565b611aa1576040517f08c379a0000000000000000000000000000000000000000000000000000000008152600401611a9890613de3565b60405180910390fd5b611aab81336129b9565b611aea576040517f08c379a0000000000000000000000000000000000000000000000000000000008152600401611ae190613ca3565b60405180910390fd5b600860008273ffffffffffffffffffffffffffffffffffffffff1673ffffffffffffffffffffffffffffffffffffffff16815260200190815260200160002060060160009054906101000a900460ff1615600860008373ffffffffffffffffffffffffffffffffffffffff1673ffffffffffffffffffffffffffffffffffffffff16815260200190815260200160002060060160006101000a81548160ff02191690831515021790555050565b60008054906101000a900473ffffffffffffffffffffffffffffffffffffffff1681565b6008602052806000526040600020600091509050806000015490806001018054611be490614201565b80601f0160208091040260200160405190810160405280929190818152602001828054611c1090614201565b8015611c5d5780601f10611c3257610100808354040283529160200191611c5d565b820191906000526020600020905b815481529060010190602001808311611c4057829003601f168201915b5050505050908060020154908060030160009054906101000a900473ffffffffffffffffffffffffffffffffffffffff16908060040154908060050154908060060160009054906101000a900460ff16908060070154905088565b606060058281548110611cf4577f4e487b7100000000000000000000000000000000000000000000000000000000600052603260045260246000fd5b906000526020600020018054611d0990614201565b80601f0160208091040260200160405190810160405280929190818152602001828054611d3590614201565b8015611d825780601f10611d5757610100808354040283529160200191611d82565b820191906000526020600020905b815481529060010190602001808311611d6557829003601f168201915b50505050509050919050565b60008054906101000a900473ffffffffffffffffffffffffffffffffffffffff1673ffffffffffffffffffffffffffffffffffffffff163373ffffffffffffffffffffffffffffffffffffffff1614611e1c576040517f08c379a0000000000000000000000000000000000000000000000000000000008152600401611e1390613d43565b60405180910390fd5b600582908060018154018082558091505060019003906000526020600020016000909190919091509080519060200190611e579291906131d9565b5080600683604051611e699190613b74565b9081526020016040518091039020819055506001600783604051611e8d9190613b74565b908152602001604051809103902060006101000a81548160ff0219169083151502179055505050565b600460003373ffffffffffffffffffffffffffffffffffffffff1673ffffffffffffffffffffffffffffffffffffffff16815260200190815260200160002060009054906101000a900460ff16611f0c57600080fd5b6000600c8281548110611f48577f4e487b7100000000000000000000000000000000000000000000000000000000600052603260045260246000fd5b906000526020600020906004020160000160009054906101000a900473ffffffffffffffffffffffffffffffffffffffff169050611f8681336129b9565b611fc5576040517f08c379a0000000000000000000000000000000000000000000000000000000008152600401611fbc90613e03565b60405180910390fd5b6001600c8381548110612001577f4e487b7100000000000000000000000000000000000000000000000000000000600052603260045260246000fd5b906000526020600020906004020160030160006101000a81548160ff0219169083600381111561205a577f4e487b7100000000000000000000000000000000000000000000000000000000600052602160045260246000fd5b02179055505050565b60008054906101000a900473ffffffffffffffffffffffffffffffffffffffff1673ffffffffffffffffffffffffffffffffffffffff163373ffffffffffffffffffffffffffffffffffffffff16146120f1576040517f08c379a00000000000000000000000000000000000000000000000000000000081526004016120e890613d43565b60405180910390fd5b806000806101000a81548173ffffffffffffffffffffffffffffffffffffffff021916908373ffffffffffffffffffffffffffffffffffffffff16021790555050565b606060038054806020026020016040519081016040528092919081815260200182805480156121b857602002820191906000526020600020905b8160009054906101000a900473ffffffffffffffffffffffffffffffffffffffff1673ffffffffffffffffffffffffffffffffffffffff168152602001906001019080831161216e575b5050505050905090565b60008054906101000a900473ffffffffffffffffffffffffffffffffffffffff1673ffffffffffffffffffffffffffffffffffffffff163373ffffffffffffffffffffffffffffffffffffffff1614612250576040517f08c379a000000000000000000000000000000000000000000000000000000000815260040161224790613d43565b60405180910390fd5b806006836040516122619190613b74565b9081526020016040518091039020819055505050565b600460003373ffffffffffffffffffffffffffffffffffffffff1673ffffffffffffffffffffffffffffffffffffffff16815260200190815260200160002060009054906101000a900460ff166122cd57600080fd5b6122d6826128a5565b612315576040517f08c379a000000000000000000000000000000000000000000000000000000000815260040161230c90613de3565b60405180910390fd5b600460008273ffffffffffffffffffffffffffffffffffffffff1673ffffffffffffffffffffffffffffffffffffffff16815260200190815260200160002060009054906101000a900460ff166123a1576040517f08c379a000000000000000000000000000000000000000000000000000000000815260040161239890613c83565b60405180910390fd5b6123ab82336129b9565b6123ea576040517f08c379a00000000000000000000000000000000000000000000000000000000081526004016123e190613ca3565b60405180910390fd5b80600860008473ffffffffffffffffffffffffffffffffffffffff1673ffffffffffffffffffffffffffffffffffffffff16815260200190815260200160002060030160006101000a81548173ffffffffffffffffffffffffffffffffffffffff021916908373ffffffffffffffffffffffffffffffffffffffff1602179055505050565b600a60205280600052604060002060009150905080600001549080600101805461249890614201565b80601f01602080910402602001604051908101604052809291908181526020018280546124c490614201565b80156125115780601f106124e657610100808354040283529160200191612511565b820191906000526020600020905b8154815290600101906020018083116124f457829003601f168201915b5050505050908060020160009054906101000a900460ff16905083565b6005818154811061253e57600080fd5b90600052602060002001600091509050805461255990614201565b80601f016020809104026020016040519081016040528092919081815260200182805461258590614201565b80156125d25780601f106125a7576101008083540402835291602001916125d2565b820191906000526020600020905b8154815290600101906020018083116125b557829003601f168201915b505050505081565b60008054906101000a900473ffffffffffffffffffffffffffffffffffffffff1673ffffffffffffffffffffffffffffffffffffffff163373ffffffffffffffffffffffffffffffffffffffff1614612668576040517f08c379a000000000000000000000000000000000000000000000000000000000815260040161265f90613d43565b60405180910390fd5b60005b82518110156126d1576126be8382815181106126b0577f4e487b7100000000000000000000000000000000000000000000000000000000600052603260045260246000fd5b602002602001015183611d8e565b80806126c990614264565b91505061266b565b505050565b60015481565b60008054906101000a900473ffffffffffffffffffffffffffffffffffffffff1673ffffffffffffffffffffffffffffffffffffffff163373ffffffffffffffffffffffffffffffffffffffff161461276a576040517f08c379a000000000000000000000000000000000000000000000000000000000815260040161276190613d43565b60405180910390fd5b600a60008273ffffffffffffffffffffffffffffffffffffffff1673ffffffffffffffffffffffffffffffffffffffff16815260200190815260200160002060020160009054906101000a900460ff1615600a60008373ffffffffffffffffffffffffffffffffffffffff1673ffffffffffffffffffffffffffffffffffffffff16815260200190815260200160002060020160006101000a81548160ff02191690831515021790555050565b6060600b80548060200260200160405190810160405280929190818152602001828054801561289b57602002820191906000526020600020905b8160009054906101000a900473ffffffffffffffffffffffffffffffffffffffff1673ffffffffffffffffffffffffffffffffffffffff1681526020019060010190808311612851575b5050505050905090565b600080600090505b60098054905081101561296f578273ffffffffffffffffffffffffffffffffffffffff166009828154811061290b577f4e487b7100000000000000000000000000000000000000000000000000000000600052603260045260246000fd5b9060005260206000200160009054906101000a900473ffffffffffffffffffffffffffffffffffffffff1673ffffffffffffffffffffffffffffffffffffffff16141561295c576001915050612975565b808061296790614264565b9150506128ad565b50600090505b919050565b600b818154811061298a57600080fd5b906000526020600020016000915054906101000a900473ffffffffffffffffffffffffffffffffffffffff1681565b60008173ffffffffffffffffffffffffffffffffffffffff16600860008573ffffffffffffffffffffffffffffffffffffffff1673ffffffffffffffffffffffffffffffffffffffff16815260200190815260200160002060030160009054906101000a900473ffffffffffffffffffffffffffffffffffffffff1673ffffffffffffffffffffffffffffffffffffffff161415612a5a5760019050612a5f565b600090505b92915050565b600080600090505b600b80549050811015612b2f578273ffffffffffffffffffffffffffffffffffffffff16600b8281548110612acb577f4e487b7100000000000000000000000000000000000000000000000000000000600052603260045260246000fd5b9060005260206000200160009054906101000a900473ffffffffffffffffffffffffffffffffffffffff1673ffffffffffffffffffffffffffffffffffffffff161415612b1c576001915050612b35565b8080612b2790614264565b915050612a6d565b50600090505b919050565b612b43816128a5565b612b82576040517f08c379a0000000000000000000000000000000000000000000000000000000008152600401612b7990613d63565b60405180910390fd5b60004290506000600860008473ffffffffffffffffffffffffffffffffffffffff1673ffffffffffffffffffffffffffffffffffffffff16815260200190815260200160002060070154905062278d0081612bdd919061406e565b821115612d7d57600860008473ffffffffffffffffffffffffffffffffffffffff1673ffffffffffffffffffffffffffffffffffffffff16815260200190815260200160002060040154600860008573ffffffffffffffffffffffffffffffffffffffff1673ffffffffffffffffffffffffffffffffffffffff1681526020019081526020016000206005016000828254612c78919061406e565b925050819055506000600860008573ffffffffffffffffffffffffffffffffffffffff1673ffffffffffffffffffffffffffffffffffffffff168152602001908152602001600020600401819055506000601e90505b620186a0811015612d7b57826201518082612ce991906140c4565b83612cf4919061406e565b1115612d675762015180600182612d0b919061411e565b612d1591906140c4565b82612d20919061406e565b600860008673ffffffffffffffffffffffffffffffffffffffff1673ffffffffffffffffffffffffffffffffffffffff168152602001908152602001600020600701819055505b601e81612d74919061406e565b9050612cce565b505b505050565b600c60405180608001604052808573ffffffffffffffffffffffffffffffffffffffff1681526020018473ffffffffffffffffffffffffffffffffffffffff16815260200183815260200160006003811115612e07577f4e487b7100000000000000000000000000000000000000000000000000000000600052602160045260246000fd5b815250908060018154018082558091505060019003906000526020600020906004020160009091909190915060008201518160000160006101000a81548173ffffffffffffffffffffffffffffffffffffffff021916908373ffffffffffffffffffffffffffffffffffffffff16021790555060208201518160010160006101000a81548173ffffffffffffffffffffffffffffffffffffffff021916908373ffffffffffffffffffffffffffffffffffffffff1602179055506040820151816002015560608201518160030160006101000a81548160ff02191690836003811115612f1c577f4e487b7100000000000000000000000000000000000000000000000000000000600052602160045260246000fd5b02179055505050505050565b60016003811115612f62577f4e487b7100000000000000000000000000000000000000000000000000000000600052602160045260246000fd5b600c8281548110612f9c577f4e487b7100000000000000000000000000000000000000000000000000000000600052603260045260246000fd5b906000526020600020906004020160030160009054906101000a900460ff166003811115612ff3577f4e487b7100000000000000000000000000000000000000000000000000000000600052602160045260246000fd5b14613033576040517f08c379a000000000000000000000000000000000000000000000000000000000815260040161302a90613d83565b60405180910390fd5b6000600c828154811061306f577f4e487b7100000000000000000000000000000000000000000000000000000000600052603260045260246000fd5b906000526020600020906004020160010160009054906101000a900473ffffffffffffffffffffffffffffffffffffffff1690506000600c83815481106130df577f4e487b7100000000000000000000000000000000000000000000000000000000600052603260045260246000fd5b90600052602060002090600402016002015490508173ffffffffffffffffffffffffffffffffffffffff166108fc829081150290604051600060405180830381858888f19350505050158015613139573d6000803e3d6000fd5b506002600c8481548110613176577f4e487b7100000000000000000000000000000000000000000000000000000000600052603260045260246000fd5b906000526020600020906004020160030160006101000a81548160ff021916908360038111156131cf577f4e487b7100000000000000000000000000000000000000000000000000000000600052602160045260246000fd5b0217905550505050565b8280546131e590614201565b90600052602060002090601f016020900481019282613207576000855561324e565b82601f1061322057805160ff191683800117855561324e565b8280016001018555821561324e579182015b8281111561324d578251825591602001919060010190613232565b5b50905061325b919061325f565b5090565b5b80821115613278576000816000905550600101613260565b5090565b600061328f61328a84613f26565b613f01565b905080838252602082019050828560208602820111156132ae57600080fd5b60005b858110156132de57816132c488826133ac565b8452602084019350602083019250506001810190506132b1565b5050509392505050565b60006132fb6132f684613f52565b613f01565b9050808382526020820190508285602086028201111561331a57600080fd5b60005b8581101561336457813567ffffffffffffffff81111561333c57600080fd5b8086016133498982613415565b8552602085019450602084019350505060018101905061331d565b5050509392505050565b600061338161337c84613f7e565b613f01565b90508281526020810184848401111561339957600080fd5b6133a48482856141bf565b509392505050565b6000813590506133bb816145c9565b92915050565b600082601f8301126133d257600080fd5b81356133e284826020860161327c565b91505092915050565b600082601f8301126133fc57600080fd5b813561340c8482602086016132e8565b91505092915050565b600082601f83011261342657600080fd5b813561343684826020860161336e565b91505092915050565b60008135905061344e816145e0565b92915050565b60006020828403121561346657600080fd5b6000613474848285016133ac565b91505092915050565b6000806040838503121561349057600080fd5b600061349e858286016133ac565b92505060206134af858286016133ac565b9150509250929050565b6000806000606084860312156134ce57600080fd5b60006134dc868287016133ac565b935050602084013567ffffffffffffffff8111156134f957600080fd5b61350586828701613415565b92505060406135168682870161343f565b9150509250925092565b6000806040838503121561353357600080fd5b6000613541858286016133ac565b92505060206135528582860161343f565b9150509250929050565b60008060006060848603121561357157600080fd5b600084013567ffffffffffffffff81111561358b57600080fd5b613597868287016133c1565b935050602084013567ffffffffffffffff8111156135b457600080fd5b6135c0868287016133eb565b92505060406135d18682870161343f565b9150509250925092565b600080604083850312156135ee57600080fd5b600083013567ffffffffffffffff81111561360857600080fd5b613614858286016133eb565b92505060206136258582860161343f565b9150509250929050565b60006020828403121561364157600080fd5b600082013567ffffffffffffffff81111561365b57600080fd5b61366784828501613415565b91505092915050565b6000806040838503121561368357600080fd5b600083013567ffffffffffffffff81111561369d57600080fd5b6136a985828601613415565b92505060206136ba858286016133ac565b9150509250929050565b600080604083850312156136d757600080fd5b600083013567ffffffffffffffff8111156136f157600080fd5b6136fd85828601613415565b925050602061370e8582860161343f565b9150509250929050565b60006020828403121561372a57600080fd5b60006137388482850161343f565b91505092915050565b600061374d838361376d565b60208301905092915050565b6000613765838361387c565b905092915050565b61377681614152565b82525050565b61378581614152565b82525050565b600061379682613fe4565b6137a0818561401f565b93506137ab83613faf565b8060005b838110156137dc5781516137c38882613741565b97506137ce83614005565b9250506001810190506137af565b5085935050505092915050565b60006137f482613fef565b6137fe8185614030565b93508360208202850161381085613fbf565b8060005b8581101561384c578484038952815161382d8582613759565b945061383883614012565b925060208a01995050600181019050613814565b50829750879550505050505092915050565b61386781614164565b82525050565b613876816141ad565b82525050565b600061388782613ffa565b6138918185614041565b93506138a18185602086016141ce565b6138aa81614369565b840191505092915050565b60006138c082613ffa565b6138ca8185614052565b93506138da8185602086016141ce565b6138e381614369565b840191505092915050565b60006138f982613ffa565b6139038185614063565b93506139138185602086016141ce565b80840191505092915050565b6000815461392c81614201565b6139368186614063565b94506001821660008114613951576001811461396257613995565b60ff19831686528186019350613995565b61396b85613fcf565b60005b8381101561398d5781548189015260018201915060208101905061396e565b838801955050505b50505092915050565b60006139ab601683614052565b91506139b68261437a565b602082019050919050565b60006139ce602383614052565b91506139d9826143a3565b604082019050919050565b60006139f1601383614052565b91506139fc826143f2565b602082019050919050565b6000613a14601683614052565b9150613a1f8261441b565b602082019050919050565b6000613a37601783614052565b9150613a4282614444565b602082019050919050565b6000613a5a601383614052565b9150613a658261446d565b602082019050919050565b6000613a7d600983614052565b9150613a8882614496565b602082019050919050565b6000613aa0600c83614052565b9150613aab826144bf565b602082019050919050565b6000613ac3601883614052565b9150613ace826144e8565b602082019050919050565b6000613ae6601683614052565b9150613af182614511565b602082019050919050565b6000613b09601383614052565b9150613b148261453a565b602082019050919050565b6000613b2c601783614052565b9150613b3782614563565b602082019050919050565b6000613b4f601683614052565b9150613b5a8261458c565b602082019050919050565b613b6e816141a3565b82525050565b6000613b8082846138ee565b915081905092915050565b6000613b97828461391f565b915081905092915050565b6000602082019050613bb7600083018461377c565b92915050565b6000608082019050613bd2600083018761377c565b613bdf602083018661377c565b613bec6040830185613b65565b613bf9606083018461386d565b95945050505050565b60006020820190508181036000830152613c1c818461378b565b905092915050565b60006020820190508181036000830152613c3e81846137e9565b905092915050565b6000602082019050613c5b600083018461385e565b92915050565b60006020820190508181036000830152613c7b81846138b5565b905092915050565b60006020820190508181036000830152613c9c8161399e565b9050919050565b60006020820190508181036000830152613cbc816139c1565b9050919050565b60006020820190508181036000830152613cdc816139e4565b9050919050565b60006020820190508181036000830152613cfc81613a07565b9050919050565b60006020820190508181036000830152613d1c81613a2a565b9050919050565b60006020820190508181036000830152613d3c81613a4d565b9050919050565b60006020820190508181036000830152613d5c81613a70565b9050919050565b60006020820190508181036000830152613d7c81613a93565b9050919050565b60006020820190508181036000830152613d9c81613ab6565b9050919050565b60006020820190508181036000830152613dbc81613ad9565b9050919050565b60006020820190508181036000830152613ddc81613afc565b9050919050565b60006020820190508181036000830152613dfc81613b1f565b9050919050565b60006020820190508181036000830152613e1c81613b42565b9050919050565b6000602082019050613e386000830184613b65565b92915050565b6000606082019050613e536000830186613b65565b8181036020830152613e6581856138b5565b9050613e74604083018461385e565b949350505050565b600061010082019050613e92600083018b613b65565b8181036020830152613ea4818a6138b5565b9050613eb36040830189613b65565b613ec0606083018861377c565b613ecd6080830187613b65565b613eda60a0830186613b65565b613ee760c083018561385e565b613ef460e0830184613b65565b9998505050505050505050565b6000613f0b613f1c565b9050613f178282614233565b919050565b6000604051905090565b600067ffffffffffffffff821115613f4157613f4061433a565b5b602082029050602081019050919050565b600067ffffffffffffffff821115613f6d57613f6c61433a565b5b602082029050602081019050919050565b600067ffffffffffffffff821115613f9957613f9861433a565b5b613fa282614369565b9050602081019050919050565b6000819050602082019050919050565b6000819050602082019050919050565b60008190508160005260206000209050919050565b600081519050919050565b600081519050919050565b600081519050919050565b6000602082019050919050565b6000602082019050919050565b600082825260208201905092915050565b600082825260208201905092915050565b600082825260208201905092915050565b600082825260208201905092915050565b600081905092915050565b6000614079826141a3565b9150614084836141a3565b9250827fffffffffffffffffffffffffffffffffffffffffffffffffffffffffffffffff038211156140b9576140b86142ad565b5b828201905092915050565b60006140cf826141a3565b91506140da836141a3565b9250817fffffffffffffffffffffffffffffffffffffffffffffffffffffffffffffffff0483118215151615614113576141126142ad565b5b828202905092915050565b6000614129826141a3565b9150614134836141a3565b925082821015614147576141466142ad565b5b828203905092915050565b600061415d82614183565b9050919050565b60008115159050919050565b600081905061417e826145b5565b919050565b600073ffffffffffffffffffffffffffffffffffffffff82169050919050565b6000819050919050565b60006141b882614170565b9050919050565b82818337600083830152505050565b60005b838110156141ec5780820151818401526020810190506141d1565b838111156141fb576000848401525b50505050565b6000600282049050600182168061421957607f821691505b6020821081141561422d5761422c61430b565b5b50919050565b61423c82614369565b810181811067ffffffffffffffff8211171561425b5761425a61433a565b5b80604052505050565b600061426f826141a3565b91507fffffffffffffffffffffffffffffffffffffffffffffffffffffffffffffffff8214156142a2576142a16142ad565b5b600182019050919050565b7f4e487b7100000000000000000000000000000000000000000000000000000000600052601160045260246000fd5b7f4e487b7100000000000000000000000000000000000000000000000000000000600052602160045260246000fd5b7f4e487b7100000000000000000000000000000000000000000000000000000000600052602260045260246000fd5b7f4e487b7100000000000000000000000000000000000000000000000000000000600052604160045260246000fd5b6000601f19601f8301169050919050565b7f6d616e6167657220646f6573206e6f7420657869737400000000000000000000600082015250565b7f796f7520617265206e6f74206d616e61676572206f662074686520656d706c6f60008201527f7965650000000000000000000000000000000000000000000000000000000000602082015250565b7f6e6f7420656e6f756768742062616c616e636500000000000000000000000000600082015250565b7f4d65726368616e7420616c726561647920657869737400000000000000000000600082015250565b7f4d65726368616e7420646f6573206e6f74206578697374000000000000000000600082015250565b7f726f6c6520646f6573206e6f7420657869737400000000000000000000000000600082015250565b7f4e6f74206f776e65720000000000000000000000000000000000000000000000600082015250565b7f6e6f7420656d706c6f7965650000000000000000000000000000000000000000600082015250565b7f7472616e73616374696f6e206e6f7420617070726f7665640000000000000000600082015250565b7f656d706c6f79656520616c726561647920657869737400000000000000000000600082015250565b7f6e6f742061637469766520656d706c6f79656500000000000000000000000000600082015250565b7f656d706c6f79656520646f6573206e6f74206578697374000000000000000000600082015250565b7f6e6f7420656d706c6f7965652773206d616e6167657200000000000000000000600082015250565b600481106145c6576145c56142dc565b5b50565b6145d281614152565b81146145dd57600080fd5b50565b6145e9816141a3565b81146145f457600080fd5b5056fea2646970667358221220b46470abbf3d9e8d50832c350e931ef5f0e60fa011ad50efe49396141d5770bb64736f6c63430008040033",
  "linkReferences": {},
  "deployedLinkReferences": {}
}