{
  "_format": "hh-sol-artifact-1",
  "contractName": "CorporateAccount",
  "sourceName": "contracts/Contract.sol",
  "abi": [
    {
      "inputs": [
        {
          "internalType": "address[]",
          "name": "_mgrs",
          "type": "address[]"
        },
        {
          "internalType": "address",
          "name": "_mappingContract",
          "type": "address"
        }
      ],
      "stateMutability": "nonpayable",
      "type": "constructor"
    },
    {
      "stateMutability": "payable",
      "type": "fallback"
    },
    {
      "inputs": [
        {
          "internalType": "address",
          "name": "",
          "type": "address"
        }
      ],
      "name": "EmployeeProfile",
      "outputs": [
        {
          "internalType": "uint256",
          "name": "id",
          "type": "uint256"
        },
        {
          "internalType": "string",
          "name": "name",
          "type": "string"
        },
        {
          "internalType": "uint256",
          "name": "roleId",
          "type": "uint256"
        },
        {
          "internalType": "address",
          "name": "myManager",
          "type": "address"
        },
        {
          "internalType": "uint256",
          "name": "spent",
          "type": "uint256"
        },
        {
          "internalType": "uint256",
          "name": "totalSpent",
          "type": "uint256"
        },
        {
          "internalType": "bool",
          "name": "active",
          "type": "bool"
        },
        {
          "internalType": "uint256",
          "name": "lastRefresh",
          "type": "uint256"
        }
      ],
      "stateMutability": "view",
      "type": "function"
    },
    {
      "inputs": [
        {
          "internalType": "uint256",
          "name": "",
          "type": "uint256"
        }
      ],
      "name": "Employees",
      "outputs": [
        {
          "internalType": "address",
          "name": "",
          "type": "address"
        }
      ],
      "stateMutability": "view",
      "type": "function"
    },
    {
      "inputs": [
        {
          "internalType": "address",
          "name": "",
          "type": "address"
        }
      ],
      "name": "MerchantProfile",
      "outputs": [
        {
          "internalType": "uint256",
          "name": "id",
          "type": "uint256"
        },
        {
          "internalType": "string",
          "name": "name",
          "type": "string"
        },
        {
          "internalType": "bool",
          "name": "active",
          "type": "bool"
        }
      ],
      "stateMutability": "view",
      "type": "function"
    },
    {
      "inputs": [
        {
          "internalType": "uint256",
          "name": "",
          "type": "uint256"
        }
      ],
      "name": "Merchants",
      "outputs": [
        {
          "internalType": "address",
          "name": "",
          "type": "address"
        }
      ],
      "stateMutability": "view",
      "type": "function"
    },
    {
      "inputs": [
        {
          "internalType": "uint256",
          "name": "",
          "type": "uint256"
        }
      ],
      "name": "Transactions",
      "outputs": [
        {
          "internalType": "address",
          "name": "employee",
          "type": "address"
        },
        {
          "internalType": "address",
          "name": "merchants",
          "type": "address"
        },
        {
          "internalType": "uint256",
          "name": "value",
          "type": "uint256"
        },
        {
          "internalType": "enum CorporateAccount.Status",
          "name": "txStatus",
          "type": "uint8"
        }
      ],
      "stateMutability": "view",
      "type": "function"
    },
    {
      "inputs": [
        {
          "internalType": "address",
          "name": "_employee",
          "type": "address"
        }
      ],
      "name": "activeEmployee",
      "outputs": [],
      "stateMutability": "nonpayable",
      "type": "function"
    },
    {
      "inputs": [
        {
          "internalType": "address",
          "name": "_merchant",
          "type": "address"
        }
      ],
      "name": "activeMerchant",
      "outputs": [],
      "stateMutability": "nonpayable",
      "type": "function"
    },
    {
      "inputs": [
        {
          "internalType": "address",
          "name": "_employee",
          "type": "address"
        },
        {
          "internalType": "string",
          "name": "_name",
          "type": "string"
        },
        {
          "internalType": "uint256",
          "name": "_roleId",
          "type": "uint256"
        }
      ],
      "name": "addEmployee",
      "outputs": [],
      "stateMutability": "nonpayable",
      "type": "function"
    },
    {
      "inputs": [
        {
          "internalType": "address[]",
          "name": "_employees",
          "type": "address[]"
        },
        {
          "internalType": "string[]",
          "name": "_names",
          "type": "string[]"
        },
        {
          "internalType": "uint256",
          "name": "_roleId",
          "type": "uint256"
        }
      ],
      "name": "addEmployees",
      "outputs": [],
      "stateMutability": "nonpayable",
      "type": "function"
    },
    {
      "inputs": [
        {
          "internalType": "string",
          "name": "_name",
          "type": "string"
        },
        {
          "internalType": "address",
          "name": "_merchant",
          "type": "address"
        }
      ],
      "name": "addMerchant",
      "outputs": [],
      "stateMutability": "nonpayable",
      "type": "function"
    },
    {
      "inputs": [
        {
          "internalType": "string",
          "name": "_role",
          "type": "string"
        },
        {
          "internalType": "uint256",
          "name": "_budget",
          "type": "uint256"
        }
      ],
      "name": "addRole",
      "outputs": [],
      "stateMutability": "nonpayable",
      "type": "function"
    },
    {
      "inputs": [
        {
          "internalType": "string[]",
          "name": "_roles",
          "type": "string[]"
        },
        {
          "internalType": "uint256",
          "name": "_budget",
          "type": "uint256"
        }
      ],
      "name": "addRoles",
      "outputs": [],
      "stateMutability": "nonpayable",
      "type": "function"
    },
    {
      "inputs": [
        {
          "internalType": "uint256",
          "name": "_id",
          "type": "uint256"
        }
      ],
      "name": "approveLargeTx",
      "outputs": [],
      "stateMutability": "nonpayable",
      "type": "function"
    },
    {
      "inputs": [
        {
          "internalType": "uint256",
          "name": "_id",
          "type": "uint256"
        },
        {
          "internalType": "uint256",
          "name": "_amt",
          "type": "uint256"
        }
      ],
      "name": "changeBudget",
      "outputs": [],
      "stateMutability": "nonpayable",
      "type": "function"
    },
    {
      "inputs": [
        {
          "internalType": "address",
          "name": "_employee",
          "type": "address"
        },
        {
          "internalType": "address",
          "name": "_manager",
          "type": "address"
        }
      ],
      "name": "changeManager",
      "outputs": [],
      "stateMutability": "nonpayable",
      "type": "function"
    },
    {
      "inputs": [
        {
          "internalType": "address",
          "name": "_newowner",
          "type": "address"
        }
      ],
      "name": "changeOwner",
      "outputs": [],
      "stateMutability": "nonpayable",
      "type": "function"
    },
    {
      "inputs": [
        {
          "internalType": "address",
          "name": "_employee",
          "type": "address"
        },
        {
          "internalType": "uint256",
          "name": "_newRole",
          "type": "uint256"
        }
      ],
      "name": "changeRole",
      "outputs": [],
      "stateMutability": "nonpayable",
      "type": "function"
    },
    {
      "inputs": [
        {
          "internalType": "uint256",
          "name": "_id",
          "type": "uint256"
        }
      ],
      "name": "deactiveRole",
      "outputs": [],
      "stateMutability": "nonpayable",
      "type": "function"
    },
    {
      "inputs": [
        {
          "internalType": "uint256",
          "name": "_id",
          "type": "uint256"
        }
      ],
      "name": "disApproveLargeTx",
      "outputs": [],
      "stateMutability": "nonpayable",
      "type": "function"
    },
    {
      "inputs": [],
      "name": "getEmployee",
      "outputs": [
        {
          "internalType": "address[]",
          "name": "",
          "type": "address[]"
        }
      ],
      "stateMutability": "view",
      "type": "function"
    },
    {
      "inputs": [],
      "name": "getManagers",
      "outputs": [
        {
          "internalType": "address[]",
          "name": "",
          "type": "address[]"
        }
      ],
      "stateMutability": "view",
      "type": "function"
    },
    {
      "inputs": [],
      "name": "getMerchants",
      "outputs": [
        {
          "internalType": "address[]",
          "name": "",
          "type": "address[]"
        }
      ],
      "stateMutability": "view",
      "type": "function"
    },
    {
      "inputs": [
        {
          "internalType": "address",
          "name": "_employee",
          "type": "address"
        }
      ],
      "name": "isEmployee",
      "outputs": [
        {
          "internalType": "bool",
          "name": "",
          "type": "bool"
        }
      ],
      "stateMutability": "view",
      "type": "function"
    },
    {
      "inputs": [
        {
          "internalType": "uint256",
          "name": "",
          "type": "uint256"
        }
      ],
      "name": "managers",
      "outputs": [
        {
          "internalType": "address",
          "name": "",
          "type": "address"
        }
      ],
      "stateMutability": "view",
      "type": "function"
    },
    {
      "inputs": [],
      "name": "myRole",
      "outputs": [
        {
          "internalType": "string",
          "name": "",
          "type": "string"
        }
      ],
      "stateMutability": "view",
      "type": "function"
    },
    {
      "inputs": [],
      "name": "owner",
      "outputs": [
        {
          "internalType": "address",
          "name": "",
          "type": "address"
        }
      ],
      "stateMutability": "view",
      "type": "function"
    },
    {
      "inputs": [],
      "name": "required",
      "outputs": [
        {
          "internalType": "uint256",
          "name": "",
          "type": "uint256"
        }
      ],
      "stateMutability": "view",
      "type": "function"
    },
    {
      "inputs": [],
      "name": "roleNumbers",
      "outputs": [
        {
          "internalType": "uint256",
          "name": "",
          "type": "uint256"
        }
      ],
      "stateMutability": "view",
      "type": "function"
    },
    {
      "inputs": [
        {
          "internalType": "uint256",
          "name": "",
          "type": "uint256"
        }
      ],
      "name": "roleProfile",
      "outputs": [
        {
          "internalType": "string",
          "name": "roleName",
          "type": "string"
        },
        {
          "internalType": "bool",
          "name": "active",
          "type": "bool"
        },
        {
          "internalType": "uint256",
          "name": "budget",
          "type": "uint256"
        }
      ],
      "stateMutability": "view",
      "type": "function"
    },
    {
      "inputs": [
        {
          "internalType": "address",
          "name": "_merchant",
          "type": "address"
        },
        {
          "internalType": "uint256",
          "name": "_value",
          "type": "uint256"
        }
      ],
      "name": "submitTransaction",
      "outputs": [],
      "stateMutability": "nonpayable",
      "type": "function"
    },
    {
      "stateMutability": "payable",
      "type": "receive"
    }
  ],
  "bytecode": "0x608060405260006006553480156200001657600080fd5b50604051620046423803806200464283398181016040528101906200003c91906200033f565b60008251116200004b57600080fd5b336000806101000a81548173ffffffffffffffffffffffffffffffffffffffff021916908373ffffffffffffffffffffffffffffffffffffffff1602179055508160039080519060200190620000a3929190620001d8565b5060005b82518110156200016057600160046000858481518110620000f1577f4e487b7100000000000000000000000000000000000000000000000000000000600052603260045260246000fd5b602002602001015173ffffffffffffffffffffffffffffffffffffffff1673ffffffffffffffffffffffffffffffffffffffff16815260200190815260200160002060006101000a81548160ff0219169083151502179055508080620001579062000493565b915050620000a7565b508073ffffffffffffffffffffffffffffffffffffffff1663e89b0e1e306040518263ffffffff1660e01b81526004016200019c9190620003aa565b600060405180830381600087803b158015620001b757600080fd5b505af1158015620001cc573d6000803e3d6000fd5b5050505050506200056a565b82805482825590600052602060002090810192821562000254579160200282015b82811115620002535782518260006101000a81548173ffffffffffffffffffffffffffffffffffffffff021916908373ffffffffffffffffffffffffffffffffffffffff16021790555091602001919060010190620001f9565b5b50905062000263919062000267565b5090565b5b808211156200028257600081600090555060010162000268565b5090565b60006200029d6200029784620003f0565b620003c7565b90508083825260208201905082856020860282011115620002bd57600080fd5b60005b85811015620002f15781620002d68882620002fb565b845260208401935060208301925050600181019050620002c0565b5050509392505050565b6000815190506200030c8162000550565b92915050565b600082601f8301126200032457600080fd5b81516200033684826020860162000286565b91505092915050565b600080604083850312156200035357600080fd5b600083015167ffffffffffffffff8111156200036e57600080fd5b6200037c8582860162000312565b92505060206200038f85828601620002fb565b9150509250929050565b620003a4816200041f565b82525050565b6000602082019050620003c1600083018462000399565b92915050565b6000620003d3620003e6565b9050620003e182826200045d565b919050565b6000604051905090565b600067ffffffffffffffff8211156200040e576200040d62000510565b5b602082029050602081019050919050565b60006200042c8262000433565b9050919050565b600073ffffffffffffffffffffffffffffffffffffffff82169050919050565b6000819050919050565b62000468826200053f565b810181811067ffffffffffffffff821117156200048a576200048962000510565b5b80604052505050565b6000620004a08262000453565b91507fffffffffffffffffffffffffffffffffffffffffffffffffffffffffffffffff821415620004d657620004d5620004e1565b5b600182019050919050565b7f4e487b7100000000000000000000000000000000000000000000000000000000600052601160045260246000fd5b7f4e487b7100000000000000000000000000000000000000000000000000000000600052604160045260246000fd5b6000601f19601f8301169050919050565b6200055b816200041f565b81146200056757600080fd5b50565b6140c8806200057a6000396000f3fe6080604052600436106101d15760003560e01c80638b34365a116100f7578063b14cf5e011610095578063dcd7207e11610064578063dcd7207e14610696578063e2d1800f146106bf578063ea66543f146106ea578063ec4725c514610727576101d8565b8063b14cf5e0146105da578063c47aeeac14610603578063d5a0ec9414610642578063dc8452cd1461066b576101d8565b8063a02be771116100d1578063a02be77114610534578063a6d99c1c1461055d578063a6f9dae114610586578063a8d088bb146105af576101d8565b80638b34365a1461049c5780638da5cb5b146104c557806391874e93146104f0576101d8565b806334008b161161016f57806350e98bcc1161013e57806350e98bcc146103f857806358a5e6ca14610421578063638403161461044a578063883c622a14610473576101d8565b806334008b16146103115780633d39c260146103515780634132db8f1461038e5780634ec2f7c5146103b9576101d8565b8063151c259f116101ab578063151c259f14610259578063159868d9146102965780631d43b653146102bf57806328f7aa36146102e8576101d8565b8063067a6b05146101da5780630acfd58e146102055780631168982f1461022e576101d8565b366101d857005b005b3480156101e657600080fd5b506101ef610764565b6040516101fc9190613728565b60405180910390f35b34801561021157600080fd5b5061022c600480360381019061022791906131ae565b61090d565b005b34801561023a57600080fd5b50610243610a84565b6040516102509190613928565b60405180910390f35b34801561026557600080fd5b50610280600480360381019061027b9190613365565b610a8a565b60405161028d919061368b565b60405180910390f35b3480156102a257600080fd5b506102bd60048036038101906102b8919061338e565b610ac9565b005b3480156102cb57600080fd5b506102e660048036038101906102e191906131ae565b610b76565b005b3480156102f457600080fd5b5061030f600480360381019061030a9190613147565b610e66565b005b34801561031d57600080fd5b5061033860048036038101906103339190613365565b61112e565b60405161034894939291906136a6565b60405180910390f35b34801561035d57600080fd5b5061037860048036038101906103739190613365565b6111bb565b604051610385919061368b565b60405180910390f35b34801561039a57600080fd5b506103a36111fa565b6040516103b091906136eb565b60405180910390f35b3480156103c557600080fd5b506103e060048036038101906103db9190613365565b611288565b6040516103ef9392919061374a565b60405180910390f35b34801561040457600080fd5b5061041f600480360381019061041a9190613365565b611347565b005b34801561042d57600080fd5b50610448600480360381019061044391906132bd565b611407565b005b34801561045657600080fd5b50610471600480360381019061046c9190613365565b6115f7565b005b34801561047f57600080fd5b5061049a600480360381019061049591906131ea565b6117ad565b005b3480156104a857600080fd5b506104c360048036038101906104be91906130e2565b6118c1565b005b3480156104d157600080fd5b506104da611a55565b6040516104e7919061368b565b60405180910390f35b3480156104fc57600080fd5b50610517600480360381019061051291906130e2565b611a79565b60405161052b989796959493929190613981565b60405180910390f35b34801561054057600080fd5b5061055b60048036038101906105569190613311565b611b76565b005b34801561056957600080fd5b50610584600480360381019061057f9190613365565b611ca5565b005b34801561059257600080fd5b506105ad60048036038101906105a891906130e2565b611e52565b005b3480156105bb57600080fd5b506105c4611f23565b6040516105d191906136eb565b60405180910390f35b3480156105e657600080fd5b5061060160048036038101906105fc919061310b565b611fb1565b005b34801561060f57600080fd5b5061062a600480360381019061062591906130e2565b6121a9565b60405161063993929190613943565b60405180910390f35b34801561064e57600080fd5b5061066960048036038101906106649190613269565b612268565b005b34801561067757600080fd5b50610680612364565b60405161068d9190613928565b60405180910390f35b3480156106a257600080fd5b506106bd60048036038101906106b891906130e2565b61236a565b005b3480156106cb57600080fd5b506106d46124a5565b6040516106e191906136eb565b60405180910390f35b3480156106f657600080fd5b50610711600480360381019061070c91906130e2565b612533565b60405161071e919061370d565b60405180910390f35b34801561073357600080fd5b5061074e60048036038101906107499190613365565b612608565b60405161075b919061368b565b60405180910390f35b60603373ffffffffffffffffffffffffffffffffffffffff1660008054906101000a900473ffffffffffffffffffffffffffffffffffffffff1673ffffffffffffffffffffffffffffffffffffffff1614156107f7576040518060400160405280600581526020017f6f776e6572000000000000000000000000000000000000000000000000000000815250905061090a565b600460003373ffffffffffffffffffffffffffffffffffffffff1673ffffffffffffffffffffffffffffffffffffffff16815260200190815260200160002060009054906101000a900460ff1615610886576040518060400160405280600781526020017f6d616e6167657200000000000000000000000000000000000000000000000000815250905061090a565b61088f33612533565b156108d1576040518060400160405280600881526020017f656d706c6f796565000000000000000000000000000000000000000000000000815250905061090a565b6040518060400160405280600281526020017f6e6100000000000000000000000000000000000000000000000000000000000081525090505b90565b600460003373ffffffffffffffffffffffffffffffffffffffff1673ffffffffffffffffffffffffffffffffffffffff16815260200190815260200160002060009054906101000a900460ff1661096357600080fd5b61096c82612533565b6109ab576040517f08c379a00000000000000000000000000000000000000000000000000000000081526004016109a2906138e8565b60405180910390fd5b6006548111156109f0576040517f08c379a00000000000000000000000000000000000000000000000000000000081526004016109e790613828565b60405180910390fd5b6109fa8233612647565b610a39576040517f08c379a0000000000000000000000000000000000000000000000000000000008152600401610a30906137a8565b60405180910390fd5b80600760008473ffffffffffffffffffffffffffffffffffffffff1673ffffffffffffffffffffffffffffffffffffffff168152602001908152602001600020600201819055505050565b60065481565b60088181548110610a9a57600080fd5b906000526020600020016000915054906101000a900473ffffffffffffffffffffffffffffffffffffffff1681565b60008054906101000a900473ffffffffffffffffffffffffffffffffffffffff1673ffffffffffffffffffffffffffffffffffffffff163373ffffffffffffffffffffffffffffffffffffffff1614610b57576040517f08c379a0000000000000000000000000000000000000000000000000000000008152600401610b4e90613848565b60405180910390fd5b8060056000848152602001908152602001600020600201819055505050565b600460003373ffffffffffffffffffffffffffffffffffffffff1673ffffffffffffffffffffffffffffffffffffffff16815260200190815260200160002060009054906101000a900460ff1680610c1a5750600760003373ffffffffffffffffffffffffffffffffffffffff1673ffffffffffffffffffffffffffffffffffffffff16815260200190815260200160002060060160009054906101000a900460ff165b610c2357600080fd5b600760003373ffffffffffffffffffffffffffffffffffffffff1673ffffffffffffffffffffffffffffffffffffffff16815260200190815260200160002060060160009054906101000a900460ff16610cb2576040517f08c379a0000000000000000000000000000000000000000000000000000000008152600401610ca9906138c8565b60405180910390fd5b80471015610cf5576040517f08c379a0000000000000000000000000000000000000000000000000000000008152600401610cec906137c8565b60405180910390fd5b610cfe826126f3565b610d3d576040517f08c379a0000000000000000000000000000000000000000000000000000000008152600401610d3490613808565b60405180910390fd5b610d46336127c8565b6000600760003373ffffffffffffffffffffffffffffffffffffffff1673ffffffffffffffffffffffffffffffffffffffff1681526020019081526020016000206002015490506000600560008381526020019081526020016000206002015490506000600760003373ffffffffffffffffffffffffffffffffffffffff1673ffffffffffffffffffffffffffffffffffffffff16815260200190815260200160002060040154905060008183610dfd9190613bb9565b9050808511610e52578573ffffffffffffffffffffffffffffffffffffffff166108fc869081150290604051600060405180830381858888f19350505050158015610e4c573d6000803e3d6000fd5b50610e5e565b610e5d338787612a10565b5b505050505050565b600460003373ffffffffffffffffffffffffffffffffffffffff1673ffffffffffffffffffffffffffffffffffffffff16815260200190815260200160002060009054906101000a900460ff16610ebc57600080fd5b6005600082815260200190815260200160002060010160009054906101000a900460ff16610f1f576040517f08c379a0000000000000000000000000000000000000000000000000000000008152600401610f1690613828565b60405180910390fd5b610f2883612533565b15610f68576040517f08c379a0000000000000000000000000000000000000000000000000000000008152600401610f5f906138a8565b60405180910390fd5b600060088054905090506008849080600181540180825580915050600190039060005260206000200160009091909190916101000a81548173ffffffffffffffffffffffffffffffffffffffff021916908373ffffffffffffffffffffffffffffffffffffffff16021790555060004290506040518061010001604052808381526020018581526020018481526020013373ffffffffffffffffffffffffffffffffffffffff168152602001600081526020016000815260200160011515815260200182815250600760008773ffffffffffffffffffffffffffffffffffffffff1673ffffffffffffffffffffffffffffffffffffffff168152602001908152602001600020600082015181600001556020820151816001019080519060200190611094929190612e67565b506040820151816002015560608201518160030160006101000a81548173ffffffffffffffffffffffffffffffffffffffff021916908373ffffffffffffffffffffffffffffffffffffffff1602179055506080820151816004015560a0820151816005015560c08201518160060160006101000a81548160ff02191690831515021790555060e082015181600701559050505050505050565b600b818154811061113e57600080fd5b90600052602060002090600402016000915090508060000160009054906101000a900473ffffffffffffffffffffffffffffffffffffffff16908060010160009054906101000a900473ffffffffffffffffffffffffffffffffffffffff16908060020154908060030160009054906101000a900460ff16905084565b600381815481106111cb57600080fd5b906000526020600020016000915054906101000a900473ffffffffffffffffffffffffffffffffffffffff1681565b6060600880548060200260200160405190810160405280929190818152602001828054801561127e57602002820191906000526020600020905b8160009054906101000a900473ffffffffffffffffffffffffffffffffffffffff1673ffffffffffffffffffffffffffffffffffffffff1681526020019060010190808311611234575b5050505050905090565b60056020528060005260406000206000915090508060000180546112ab90613c9c565b80601f01602080910402602001604051908101604052809291908181526020018280546112d790613c9c565b80156113245780601f106112f957610100808354040283529160200191611324565b820191906000526020600020905b81548152906001019060200180831161130757829003601f168201915b5050505050908060010160009054906101000a900460ff16908060020154905083565b60008054906101000a900473ffffffffffffffffffffffffffffffffffffffff1673ffffffffffffffffffffffffffffffffffffffff163373ffffffffffffffffffffffffffffffffffffffff16146113d5576040517f08c379a00000000000000000000000000000000000000000000000000000000081526004016113cc90613848565b60405180910390fd5b60006005600083815260200190815260200160002060010160006101000a81548160ff02191690831515021790555050565b60008054906101000a900473ffffffffffffffffffffffffffffffffffffffff1673ffffffffffffffffffffffffffffffffffffffff163373ffffffffffffffffffffffffffffffffffffffff1614611495576040517f08c379a000000000000000000000000000000000000000000000000000000000815260040161148c90613848565b60405180910390fd5b61149e816126f3565b156114de576040517f08c379a00000000000000000000000000000000000000000000000000000000081526004016114d5906137e8565b60405180910390fd5b6000600a805490509050600a829080600181540180825580915050600190039060005260206000200160009091909190916101000a81548173ffffffffffffffffffffffffffffffffffffffff021916908373ffffffffffffffffffffffffffffffffffffffff160217905550604051806060016040528082815260200184815260200160011515815250600960008473ffffffffffffffffffffffffffffffffffffffff1673ffffffffffffffffffffffffffffffffffffffff1681526020019081526020016000206000820151816000015560208201518160010190805190602001906115ce929190612e67565b5060408201518160020160006101000a81548160ff021916908315150217905550905050505050565b600460003373ffffffffffffffffffffffffffffffffffffffff1673ffffffffffffffffffffffffffffffffffffffff16815260200190815260200160002060009054906101000a900460ff1661164d57600080fd5b6000600b8281548110611689577f4e487b7100000000000000000000000000000000000000000000000000000000600052603260045260246000fd5b906000526020600020906004020160000160009054906101000a900473ffffffffffffffffffffffffffffffffffffffff1690506116c78133612647565b611706576040517f08c379a00000000000000000000000000000000000000000000000000000000081526004016116fd90613908565b60405180910390fd5b6002600b8381548110611742577f4e487b7100000000000000000000000000000000000000000000000000000000600052603260045260246000fd5b906000526020600020906004020160030160006101000a81548160ff0219169083600381111561179b577f4e487b7100000000000000000000000000000000000000000000000000000000600052602160045260246000fd5b02179055506117a982612bb6565b5050565b600460003373ffffffffffffffffffffffffffffffffffffffff1673ffffffffffffffffffffffffffffffffffffffff16815260200190815260200160002060009054906101000a900460ff1661180357600080fd5b815183511461181157600080fd5b60005b83518110156118bb576118a8848281518110611859577f4e487b7100000000000000000000000000000000000000000000000000000000600052603260045260246000fd5b602002602001015184838151811061189a577f4e487b7100000000000000000000000000000000000000000000000000000000600052603260045260246000fd5b602002602001015184610e66565b80806118b390613cff565b915050611814565b50505050565b600460003373ffffffffffffffffffffffffffffffffffffffff1673ffffffffffffffffffffffffffffffffffffffff16815260200190815260200160002060009054906101000a900460ff1661191757600080fd5b61192081612533565b61195f576040517f08c379a0000000000000000000000000000000000000000000000000000000008152600401611956906138e8565b60405180910390fd5b6119698133612647565b6119a8576040517f08c379a000000000000000000000000000000000000000000000000000000000815260040161199f906137a8565b60405180910390fd5b600760008273ffffffffffffffffffffffffffffffffffffffff1673ffffffffffffffffffffffffffffffffffffffff16815260200190815260200160002060060160009054906101000a900460ff1615600760008373ffffffffffffffffffffffffffffffffffffffff1673ffffffffffffffffffffffffffffffffffffffff16815260200190815260200160002060060160006101000a81548160ff02191690831515021790555050565b60008054906101000a900473ffffffffffffffffffffffffffffffffffffffff1681565b6007602052806000526040600020600091509050806000015490806001018054611aa290613c9c565b80601f0160208091040260200160405190810160405280929190818152602001828054611ace90613c9c565b8015611b1b5780601f10611af057610100808354040283529160200191611b1b565b820191906000526020600020905b815481529060010190602001808311611afe57829003601f168201915b5050505050908060020154908060030160009054906101000a900473ffffffffffffffffffffffffffffffffffffffff16908060040154908060050154908060060160009054906101000a900460ff16908060070154905088565b60008054906101000a900473ffffffffffffffffffffffffffffffffffffffff1673ffffffffffffffffffffffffffffffffffffffff163373ffffffffffffffffffffffffffffffffffffffff1614611c04576040517f08c379a0000000000000000000000000000000000000000000000000000000008152600401611bfb90613848565b60405180910390fd5b60006006549050604051806060016040528084815260200160011515815260200183815250600560008381526020019081526020016000206000820151816000019080519060200190611c58929190612e67565b5060208201518160010160006101000a81548160ff02191690831515021790555060408201518160020155905050600160066000828254611c999190613b09565b92505081905550505050565b600460003373ffffffffffffffffffffffffffffffffffffffff1673ffffffffffffffffffffffffffffffffffffffff16815260200190815260200160002060009054906101000a900460ff16611cfb57600080fd5b6000600b8281548110611d37577f4e487b7100000000000000000000000000000000000000000000000000000000600052603260045260246000fd5b906000526020600020906004020160000160009054906101000a900473ffffffffffffffffffffffffffffffffffffffff169050611d758133612647565b611db4576040517f08c379a0000000000000000000000000000000000000000000000000000000008152600401611dab90613908565b60405180910390fd5b6001600b8381548110611df0577f4e487b7100000000000000000000000000000000000000000000000000000000600052603260045260246000fd5b906000526020600020906004020160030160006101000a81548160ff02191690836003811115611e49577f4e487b7100000000000000000000000000000000000000000000000000000000600052602160045260246000fd5b02179055505050565b60008054906101000a900473ffffffffffffffffffffffffffffffffffffffff1673ffffffffffffffffffffffffffffffffffffffff163373ffffffffffffffffffffffffffffffffffffffff1614611ee0576040517f08c379a0000000000000000000000000000000000000000000000000000000008152600401611ed790613848565b60405180910390fd5b806000806101000a81548173ffffffffffffffffffffffffffffffffffffffff021916908373ffffffffffffffffffffffffffffffffffffffff16021790555050565b60606003805480602002602001604051908101604052809291908181526020018280548015611fa757602002820191906000526020600020905b8160009054906101000a900473ffffffffffffffffffffffffffffffffffffffff1673ffffffffffffffffffffffffffffffffffffffff1681526020019060010190808311611f5d575b5050505050905090565b600460003373ffffffffffffffffffffffffffffffffffffffff1673ffffffffffffffffffffffffffffffffffffffff16815260200190815260200160002060009054906101000a900460ff1661200757600080fd5b61201082612533565b61204f576040517f08c379a0000000000000000000000000000000000000000000000000000000008152600401612046906138e8565b60405180910390fd5b600460008273ffffffffffffffffffffffffffffffffffffffff1673ffffffffffffffffffffffffffffffffffffffff16815260200190815260200160002060009054906101000a900460ff166120db576040517f08c379a00000000000000000000000000000000000000000000000000000000081526004016120d290613788565b60405180910390fd5b6120e58233612647565b612124576040517f08c379a000000000000000000000000000000000000000000000000000000000815260040161211b906137a8565b60405180910390fd5b80600760008473ffffffffffffffffffffffffffffffffffffffff1673ffffffffffffffffffffffffffffffffffffffff16815260200190815260200160002060030160006101000a81548173ffffffffffffffffffffffffffffffffffffffff021916908373ffffffffffffffffffffffffffffffffffffffff1602179055505050565b60096020528060005260406000206000915090508060000154908060010180546121d290613c9c565b80601f01602080910402602001604051908101604052809291908181526020018280546121fe90613c9c565b801561224b5780601f106122205761010080835404028352916020019161224b565b820191906000526020600020905b81548152906001019060200180831161222e57829003601f168201915b5050505050908060020160009054906101000a900460ff16905083565b60008054906101000a900473ffffffffffffffffffffffffffffffffffffffff1673ffffffffffffffffffffffffffffffffffffffff163373ffffffffffffffffffffffffffffffffffffffff16146122f6576040517f08c379a00000000000000000000000000000000000000000000000000000000081526004016122ed90613848565b60405180910390fd5b60005b825181101561235f5761234c83828151811061233e577f4e487b7100000000000000000000000000000000000000000000000000000000600052603260045260246000fd5b602002602001015183611b76565b808061235790613cff565b9150506122f9565b505050565b60015481565b60008054906101000a900473ffffffffffffffffffffffffffffffffffffffff1673ffffffffffffffffffffffffffffffffffffffff163373ffffffffffffffffffffffffffffffffffffffff16146123f8576040517f08c379a00000000000000000000000000000000000000000000000000000000081526004016123ef90613848565b60405180910390fd5b600960008273ffffffffffffffffffffffffffffffffffffffff1673ffffffffffffffffffffffffffffffffffffffff16815260200190815260200160002060020160009054906101000a900460ff1615600960008373ffffffffffffffffffffffffffffffffffffffff1673ffffffffffffffffffffffffffffffffffffffff16815260200190815260200160002060020160006101000a81548160ff02191690831515021790555050565b6060600a80548060200260200160405190810160405280929190818152602001828054801561252957602002820191906000526020600020905b8160009054906101000a900473ffffffffffffffffffffffffffffffffffffffff1673ffffffffffffffffffffffffffffffffffffffff16815260200190600101908083116124df575b5050505050905090565b600080600090505b6008805490508110156125fd578273ffffffffffffffffffffffffffffffffffffffff1660088281548110612599577f4e487b7100000000000000000000000000000000000000000000000000000000600052603260045260246000fd5b9060005260206000200160009054906101000a900473ffffffffffffffffffffffffffffffffffffffff1673ffffffffffffffffffffffffffffffffffffffff1614156125ea576001915050612603565b80806125f590613cff565b91505061253b565b50600090505b919050565b600a818154811061261857600080fd5b906000526020600020016000915054906101000a900473ffffffffffffffffffffffffffffffffffffffff1681565b60008173ffffffffffffffffffffffffffffffffffffffff16600760008573ffffffffffffffffffffffffffffffffffffffff1673ffffffffffffffffffffffffffffffffffffffff16815260200190815260200160002060030160009054906101000a900473ffffffffffffffffffffffffffffffffffffffff1673ffffffffffffffffffffffffffffffffffffffff1614156126e857600190506126ed565b600090505b92915050565b600080600090505b600a805490508110156127bd578273ffffffffffffffffffffffffffffffffffffffff16600a8281548110612759577f4e487b7100000000000000000000000000000000000000000000000000000000600052603260045260246000fd5b9060005260206000200160009054906101000a900473ffffffffffffffffffffffffffffffffffffffff1673ffffffffffffffffffffffffffffffffffffffff1614156127aa5760019150506127c3565b80806127b590613cff565b9150506126fb565b50600090505b919050565b6127d181612533565b612810576040517f08c379a000000000000000000000000000000000000000000000000000000000815260040161280790613868565b60405180910390fd5b60004290506000600760008473ffffffffffffffffffffffffffffffffffffffff1673ffffffffffffffffffffffffffffffffffffffff16815260200190815260200160002060070154905062278d008161286b9190613b09565b821115612a0b57600760008473ffffffffffffffffffffffffffffffffffffffff1673ffffffffffffffffffffffffffffffffffffffff16815260200190815260200160002060040154600760008573ffffffffffffffffffffffffffffffffffffffff1673ffffffffffffffffffffffffffffffffffffffff16815260200190815260200160002060050160008282546129069190613b09565b925050819055506000600760008573ffffffffffffffffffffffffffffffffffffffff1673ffffffffffffffffffffffffffffffffffffffff168152602001908152602001600020600401819055506000601e90505b620186a0811015612a09578262015180826129779190613b5f565b836129829190613b09565b11156129f557620151806001826129999190613bb9565b6129a39190613b5f565b826129ae9190613b09565b600760008673ffffffffffffffffffffffffffffffffffffffff1673ffffffffffffffffffffffffffffffffffffffff168152602001908152602001600020600701819055505b601e81612a029190613b09565b905061295c565b505b505050565b600b60405180608001604052808573ffffffffffffffffffffffffffffffffffffffff1681526020018473ffffffffffffffffffffffffffffffffffffffff16815260200183815260200160006003811115612a95577f4e487b7100000000000000000000000000000000000000000000000000000000600052602160045260246000fd5b815250908060018154018082558091505060019003906000526020600020906004020160009091909190915060008201518160000160006101000a81548173ffffffffffffffffffffffffffffffffffffffff021916908373ffffffffffffffffffffffffffffffffffffffff16021790555060208201518160010160006101000a81548173ffffffffffffffffffffffffffffffffffffffff021916908373ffffffffffffffffffffffffffffffffffffffff1602179055506040820151816002015560608201518160030160006101000a81548160ff02191690836003811115612baa577f4e487b7100000000000000000000000000000000000000000000000000000000600052602160045260246000fd5b02179055505050505050565b60016003811115612bf0577f4e487b7100000000000000000000000000000000000000000000000000000000600052602160045260246000fd5b600b8281548110612c2a577f4e487b7100000000000000000000000000000000000000000000000000000000600052603260045260246000fd5b906000526020600020906004020160030160009054906101000a900460ff166003811115612c81577f4e487b7100000000000000000000000000000000000000000000000000000000600052602160045260246000fd5b14612cc1576040517f08c379a0000000000000000000000000000000000000000000000000000000008152600401612cb890613888565b60405180910390fd5b6000600b8281548110612cfd577f4e487b7100000000000000000000000000000000000000000000000000000000600052603260045260246000fd5b906000526020600020906004020160010160009054906101000a900473ffffffffffffffffffffffffffffffffffffffff1690506000600b8381548110612d6d577f4e487b7100000000000000000000000000000000000000000000000000000000600052603260045260246000fd5b90600052602060002090600402016002015490508173ffffffffffffffffffffffffffffffffffffffff166108fc829081150290604051600060405180830381858888f19350505050158015612dc7573d6000803e3d6000fd5b506002600b8481548110612e04577f4e487b7100000000000000000000000000000000000000000000000000000000600052603260045260246000fd5b906000526020600020906004020160030160006101000a81548160ff02191690836003811115612e5d577f4e487b7100000000000000000000000000000000000000000000000000000000600052602160045260246000fd5b0217905550505050565b828054612e7390613c9c565b90600052602060002090601f016020900481019282612e955760008555612edc565b82601f10612eae57805160ff1916838001178555612edc565b82800160010185558215612edc579182015b82811115612edb578251825591602001919060010190612ec0565b5b509050612ee99190612eed565b5090565b5b80821115612f06576000816000905550600101612eee565b5090565b6000612f1d612f1884613a2b565b613a06565b90508083825260208201905082856020860282011115612f3c57600080fd5b60005b85811015612f6c5781612f52888261303a565b845260208401935060208301925050600181019050612f3f565b5050509392505050565b6000612f89612f8484613a57565b613a06565b90508083825260208201905082856020860282011115612fa857600080fd5b60005b85811015612ff257813567ffffffffffffffff811115612fca57600080fd5b808601612fd789826130a3565b85526020850194506020840193505050600181019050612fab565b5050509392505050565b600061300f61300a84613a83565b613a06565b90508281526020810184848401111561302757600080fd5b613032848285613c5a565b509392505050565b60008135905061304981614064565b92915050565b600082601f83011261306057600080fd5b8135613070848260208601612f0a565b91505092915050565b600082601f83011261308a57600080fd5b813561309a848260208601612f76565b91505092915050565b600082601f8301126130b457600080fd5b81356130c4848260208601612ffc565b91505092915050565b6000813590506130dc8161407b565b92915050565b6000602082840312156130f457600080fd5b60006131028482850161303a565b91505092915050565b6000806040838503121561311e57600080fd5b600061312c8582860161303a565b925050602061313d8582860161303a565b9150509250929050565b60008060006060848603121561315c57600080fd5b600061316a8682870161303a565b935050602084013567ffffffffffffffff81111561318757600080fd5b613193868287016130a3565b92505060406131a4868287016130cd565b9150509250925092565b600080604083850312156131c157600080fd5b60006131cf8582860161303a565b92505060206131e0858286016130cd565b9150509250929050565b6000806000606084860312156131ff57600080fd5b600084013567ffffffffffffffff81111561321957600080fd5b6132258682870161304f565b935050602084013567ffffffffffffffff81111561324257600080fd5b61324e86828701613079565b925050604061325f868287016130cd565b9150509250925092565b6000806040838503121561327c57600080fd5b600083013567ffffffffffffffff81111561329657600080fd5b6132a285828601613079565b92505060206132b3858286016130cd565b9150509250929050565b600080604083850312156132d057600080fd5b600083013567ffffffffffffffff8111156132ea57600080fd5b6132f6858286016130a3565b92505060206133078582860161303a565b9150509250929050565b6000806040838503121561332457600080fd5b600083013567ffffffffffffffff81111561333e57600080fd5b61334a858286016130a3565b925050602061335b858286016130cd565b9150509250929050565b60006020828403121561337757600080fd5b6000613385848285016130cd565b91505092915050565b600080604083850312156133a157600080fd5b60006133af858286016130cd565b92505060206133c0858286016130cd565b9150509250929050565b60006133d683836133e2565b60208301905092915050565b6133eb81613bed565b82525050565b6133fa81613bed565b82525050565b600061340b82613ac4565b6134158185613ae7565b935061342083613ab4565b8060005b8381101561345157815161343888826133ca565b975061344383613ada565b925050600181019050613424565b5085935050505092915050565b61346781613bff565b82525050565b61347681613c48565b82525050565b600061348782613acf565b6134918185613af8565b93506134a1818560208601613c69565b6134aa81613e04565b840191505092915050565b60006134c2601683613af8565b91506134cd82613e15565b602082019050919050565b60006134e5602383613af8565b91506134f082613e3e565b604082019050919050565b6000613508601383613af8565b915061351382613e8d565b602082019050919050565b600061352b601683613af8565b915061353682613eb6565b602082019050919050565b600061354e601783613af8565b915061355982613edf565b602082019050919050565b6000613571601383613af8565b915061357c82613f08565b602082019050919050565b6000613594600983613af8565b915061359f82613f31565b602082019050919050565b60006135b7600c83613af8565b91506135c282613f5a565b602082019050919050565b60006135da601883613af8565b91506135e582613f83565b602082019050919050565b60006135fd601683613af8565b915061360882613fac565b602082019050919050565b6000613620601383613af8565b915061362b82613fd5565b602082019050919050565b6000613643601783613af8565b915061364e82613ffe565b602082019050919050565b6000613666601683613af8565b915061367182614027565b602082019050919050565b61368581613c3e565b82525050565b60006020820190506136a060008301846133f1565b92915050565b60006080820190506136bb60008301876133f1565b6136c860208301866133f1565b6136d5604083018561367c565b6136e2606083018461346d565b95945050505050565b600060208201905081810360008301526137058184613400565b905092915050565b6000602082019050613722600083018461345e565b92915050565b60006020820190508181036000830152613742818461347c565b905092915050565b60006060820190508181036000830152613764818661347c565b9050613773602083018561345e565b613780604083018461367c565b949350505050565b600060208201905081810360008301526137a1816134b5565b9050919050565b600060208201905081810360008301526137c1816134d8565b9050919050565b600060208201905081810360008301526137e1816134fb565b9050919050565b600060208201905081810360008301526138018161351e565b9050919050565b6000602082019050818103600083015261382181613541565b9050919050565b6000602082019050818103600083015261384181613564565b9050919050565b6000602082019050818103600083015261386181613587565b9050919050565b60006020820190508181036000830152613881816135aa565b9050919050565b600060208201905081810360008301526138a1816135cd565b9050919050565b600060208201905081810360008301526138c1816135f0565b9050919050565b600060208201905081810360008301526138e181613613565b9050919050565b6000602082019050818103600083015261390181613636565b9050919050565b6000602082019050818103600083015261392181613659565b9050919050565b600060208201905061393d600083018461367c565b92915050565b6000606082019050613958600083018661367c565b818103602083015261396a818561347c565b9050613979604083018461345e565b949350505050565b600061010082019050613997600083018b61367c565b81810360208301526139a9818a61347c565b90506139b8604083018961367c565b6139c560608301886133f1565b6139d2608083018761367c565b6139df60a083018661367c565b6139ec60c083018561345e565b6139f960e083018461367c565b9998505050505050505050565b6000613a10613a21565b9050613a1c8282613cce565b919050565b6000604051905090565b600067ffffffffffffffff821115613a4657613a45613dd5565b5b602082029050602081019050919050565b600067ffffffffffffffff821115613a7257613a71613dd5565b5b602082029050602081019050919050565b600067ffffffffffffffff821115613a9e57613a9d613dd5565b5b613aa782613e04565b9050602081019050919050565b6000819050602082019050919050565b600081519050919050565b600081519050919050565b6000602082019050919050565b600082825260208201905092915050565b600082825260208201905092915050565b6000613b1482613c3e565b9150613b1f83613c3e565b9250827fffffffffffffffffffffffffffffffffffffffffffffffffffffffffffffffff03821115613b5457613b53613d48565b5b828201905092915050565b6000613b6a82613c3e565b9150613b7583613c3e565b9250817fffffffffffffffffffffffffffffffffffffffffffffffffffffffffffffffff0483118215151615613bae57613bad613d48565b5b828202905092915050565b6000613bc482613c3e565b9150613bcf83613c3e565b925082821015613be257613be1613d48565b5b828203905092915050565b6000613bf882613c1e565b9050919050565b60008115159050919050565b6000819050613c1982614050565b919050565b600073ffffffffffffffffffffffffffffffffffffffff82169050919050565b6000819050919050565b6000613c5382613c0b565b9050919050565b82818337600083830152505050565b60005b83811015613c87578082015181840152602081019050613c6c565b83811115613c96576000848401525b50505050565b60006002820490506001821680613cb457607f821691505b60208210811415613cc857613cc7613da6565b5b50919050565b613cd782613e04565b810181811067ffffffffffffffff82111715613cf657613cf5613dd5565b5b80604052505050565b6000613d0a82613c3e565b91507fffffffffffffffffffffffffffffffffffffffffffffffffffffffffffffffff821415613d3d57613d3c613d48565b5b600182019050919050565b7f4e487b7100000000000000000000000000000000000000000000000000000000600052601160045260246000fd5b7f4e487b7100000000000000000000000000000000000000000000000000000000600052602160045260246000fd5b7f4e487b7100000000000000000000000000000000000000000000000000000000600052602260045260246000fd5b7f4e487b7100000000000000000000000000000000000000000000000000000000600052604160045260246000fd5b6000601f19601f8301169050919050565b7f6d616e6167657220646f6573206e6f7420657869737400000000000000000000600082015250565b7f796f7520617265206e6f74206d616e61676572206f662074686520656d706c6f60008201527f7965650000000000000000000000000000000000000000000000000000000000602082015250565b7f6e6f7420656e6f756768742062616c616e636500000000000000000000000000600082015250565b7f4d65726368616e7420616c726561647920657869737400000000000000000000600082015250565b7f4d65726368616e7420646f6573206e6f74206578697374000000000000000000600082015250565b7f726f6c6520646f6573206e6f7420657869737400000000000000000000000000600082015250565b7f4e6f74206f776e65720000000000000000000000000000000000000000000000600082015250565b7f6e6f7420656d706c6f7965650000000000000000000000000000000000000000600082015250565b7f7472616e73616374696f6e206e6f7420617070726f7665640000000000000000600082015250565b7f656d706c6f79656520616c726561647920657869737400000000000000000000600082015250565b7f6e6f742061637469766520656d706c6f79656500000000000000000000000000600082015250565b7f656d706c6f79656520646f6573206e6f74206578697374000000000000000000600082015250565b7f6e6f7420656d706c6f7965652773206d616e6167657200000000000000000000600082015250565b6004811061406157614060613d77565b5b50565b61406d81613bed565b811461407857600080fd5b50565b61408481613c3e565b811461408f57600080fd5b5056fea26469706673582212206ac60ee066bede1f874a56a6d8ee0a80490893ec1510aaafcb38bd2cc79261fc64736f6c63430008040033",
  "linkReferences": {},
  "deployedLinkReferences": {}
}